{
  "_format": "hh-sol-artifact-1",
  "contractName": "OnChainNoah",
  "sourceName": "contracts/OnChainNoah.sol",
  "abi": [
    {
      "inputs": [],
      "stateMutability": "nonpayable",
      "type": "constructor"
    },
    {
      "inputs": [],
      "name": "ApprovalCallerNotOwnerNorApproved",
      "type": "error"
    },
    {
      "inputs": [],
      "name": "ApprovalQueryForNonexistentToken",
      "type": "error"
    },
    {
      "inputs": [],
      "name": "BalanceQueryForZeroAddress",
      "type": "error"
    },
    {
      "inputs": [],
      "name": "MintERC2309QuantityExceedsLimit",
      "type": "error"
    },
    {
      "inputs": [],
      "name": "MintToZeroAddress",
      "type": "error"
    },
    {
      "inputs": [],
      "name": "MintZeroQuantity",
      "type": "error"
    },
    {
      "inputs": [],
      "name": "OwnerQueryForNonexistentToken",
      "type": "error"
    },
    {
      "inputs": [],
      "name": "OwnershipNotInitializedForExtraData",
      "type": "error"
    },
    {
      "inputs": [],
      "name": "TransferCallerNotOwnerNorApproved",
      "type": "error"
    },
    {
      "inputs": [],
      "name": "TransferFromIncorrectOwner",
      "type": "error"
    },
    {
      "inputs": [],
      "name": "TransferToNonERC721ReceiverImplementer",
      "type": "error"
    },
    {
      "inputs": [],
      "name": "TransferToZeroAddress",
      "type": "error"
    },
    {
      "inputs": [],
      "name": "URIQueryForNonexistentToken",
      "type": "error"
    },
    {
      "anonymous": false,
      "inputs": [
        {
          "indexed": true,
          "internalType": "address",
          "name": "owner",
          "type": "address"
        },
        {
          "indexed": true,
          "internalType": "address",
          "name": "approved",
          "type": "address"
        },
        {
          "indexed": true,
          "internalType": "uint256",
          "name": "tokenId",
          "type": "uint256"
        }
      ],
      "name": "Approval",
      "type": "event"
    },
    {
      "anonymous": false,
      "inputs": [
        {
          "indexed": true,
          "internalType": "address",
          "name": "owner",
          "type": "address"
        },
        {
          "indexed": true,
          "internalType": "address",
          "name": "operator",
          "type": "address"
        },
        {
          "indexed": false,
          "internalType": "bool",
          "name": "approved",
          "type": "bool"
        }
      ],
      "name": "ApprovalForAll",
      "type": "event"
    },
    {
      "anonymous": false,
      "inputs": [
        {
          "indexed": true,
          "internalType": "uint256",
          "name": "fromTokenId",
          "type": "uint256"
        },
        {
          "indexed": false,
          "internalType": "uint256",
          "name": "toTokenId",
          "type": "uint256"
        },
        {
          "indexed": true,
          "internalType": "address",
          "name": "from",
          "type": "address"
        },
        {
          "indexed": true,
          "internalType": "address",
          "name": "to",
          "type": "address"
        }
      ],
      "name": "ConsecutiveTransfer",
      "type": "event"
    },
    {
      "anonymous": false,
      "inputs": [
        {
          "indexed": true,
          "internalType": "address",
          "name": "previousOwner",
          "type": "address"
        },
        {
          "indexed": true,
          "internalType": "address",
          "name": "newOwner",
          "type": "address"
        }
      ],
      "name": "OwnershipTransferred",
      "type": "event"
    },
    {
      "anonymous": false,
      "inputs": [
        {
          "indexed": true,
          "internalType": "address",
          "name": "from",
          "type": "address"
        },
        {
          "indexed": true,
          "internalType": "address",
          "name": "to",
          "type": "address"
        },
        {
          "indexed": true,
          "internalType": "uint256",
          "name": "tokenId",
          "type": "uint256"
        }
      ],
      "name": "Transfer",
      "type": "event"
    },
    {
      "inputs": [
        {
          "internalType": "address",
          "name": "to",
          "type": "address"
        },
        {
          "internalType": "uint256",
          "name": "tokenId",
          "type": "uint256"
        }
      ],
      "name": "approve",
      "outputs": [],
      "stateMutability": "payable",
      "type": "function"
    },
    {
      "inputs": [
        {
          "internalType": "address",
          "name": "owner",
          "type": "address"
        }
      ],
      "name": "balanceOf",
      "outputs": [
        {
          "internalType": "uint256",
          "name": "",
          "type": "uint256"
        }
      ],
      "stateMutability": "view",
      "type": "function"
    },
    {
      "inputs": [],
      "name": "collectionSize",
      "outputs": [
        {
          "internalType": "uint256",
          "name": "",
          "type": "uint256"
        }
      ],
      "stateMutability": "view",
      "type": "function"
    },
    {
      "inputs": [
        {
          "internalType": "uint256",
          "name": "tokenId",
          "type": "uint256"
        }
      ],
      "name": "getApproved",
      "outputs": [
        {
          "internalType": "address",
          "name": "",
          "type": "address"
        }
      ],
      "stateMutability": "view",
      "type": "function"
    },
    {
      "inputs": [
        {
          "internalType": "address",
          "name": "owner",
          "type": "address"
        },
        {
          "internalType": "address",
          "name": "operator",
          "type": "address"
        }
      ],
      "name": "isApprovedForAll",
      "outputs": [
        {
          "internalType": "bool",
          "name": "",
          "type": "bool"
        }
      ],
      "stateMutability": "view",
      "type": "function"
    },
    {
      "inputs": [
        {
          "internalType": "uint256",
          "name": "_amount",
          "type": "uint256"
        }
      ],
      "name": "mint",
      "outputs": [],
      "stateMutability": "nonpayable",
      "type": "function"
    },
    {
      "inputs": [],
      "name": "name",
      "outputs": [
        {
          "internalType": "string",
          "name": "",
          "type": "string"
        }
      ],
      "stateMutability": "view",
      "type": "function"
    },
    {
      "inputs": [],
      "name": "owner",
      "outputs": [
        {
          "internalType": "address",
          "name": "",
          "type": "address"
        }
      ],
      "stateMutability": "view",
      "type": "function"
    },
    {
      "inputs": [
        {
          "internalType": "uint256",
          "name": "tokenId",
          "type": "uint256"
        }
      ],
      "name": "ownerOf",
      "outputs": [
        {
          "internalType": "address",
          "name": "",
          "type": "address"
        }
      ],
      "stateMutability": "view",
      "type": "function"
    },
    {
      "inputs": [],
      "name": "renounceOwnership",
      "outputs": [],
      "stateMutability": "nonpayable",
      "type": "function"
    },
    {
      "inputs": [
        {
          "internalType": "address",
          "name": "from",
          "type": "address"
        },
        {
          "internalType": "address",
          "name": "to",
          "type": "address"
        },
        {
          "internalType": "uint256",
          "name": "tokenId",
          "type": "uint256"
        }
      ],
      "name": "safeTransferFrom",
      "outputs": [],
      "stateMutability": "payable",
      "type": "function"
    },
    {
      "inputs": [
        {
          "internalType": "address",
          "name": "from",
          "type": "address"
        },
        {
          "internalType": "address",
          "name": "to",
          "type": "address"
        },
        {
          "internalType": "uint256",
          "name": "tokenId",
          "type": "uint256"
        },
        {
          "internalType": "bytes",
          "name": "_data",
          "type": "bytes"
        }
      ],
      "name": "safeTransferFrom",
      "outputs": [],
      "stateMutability": "payable",
      "type": "function"
    },
    {
      "inputs": [
        {
          "internalType": "address",
          "name": "operator",
          "type": "address"
        },
        {
          "internalType": "bool",
          "name": "approved",
          "type": "bool"
        }
      ],
      "name": "setApprovalForAll",
      "outputs": [],
      "stateMutability": "nonpayable",
      "type": "function"
    },
    {
      "inputs": [
        {
          "internalType": "string",
          "name": "baseURI",
          "type": "string"
        }
      ],
      "name": "setBaseURI",
      "outputs": [],
      "stateMutability": "nonpayable",
      "type": "function"
    },
    {
      "inputs": [
        {
          "internalType": "bytes4",
          "name": "interfaceId",
          "type": "bytes4"
        }
      ],
      "name": "supportsInterface",
      "outputs": [
        {
          "internalType": "bool",
          "name": "",
          "type": "bool"
        }
      ],
      "stateMutability": "view",
      "type": "function"
    },
    {
      "inputs": [],
      "name": "symbol",
      "outputs": [
        {
          "internalType": "string",
          "name": "",
          "type": "string"
        }
      ],
      "stateMutability": "view",
      "type": "function"
    },
    {
      "inputs": [
        {
          "internalType": "uint256",
          "name": "tokenId",
          "type": "uint256"
        }
      ],
      "name": "tokenURI",
      "outputs": [
        {
          "internalType": "string",
          "name": "",
          "type": "string"
        }
      ],
      "stateMutability": "view",
      "type": "function"
    },
    {
      "inputs": [],
      "name": "totalSupply",
      "outputs": [
        {
          "internalType": "uint256",
          "name": "",
          "type": "uint256"
        }
      ],
      "stateMutability": "view",
      "type": "function"
    },
    {
      "inputs": [
        {
          "internalType": "address",
          "name": "from",
          "type": "address"
        },
        {
          "internalType": "address",
          "name": "to",
          "type": "address"
        },
        {
          "internalType": "uint256",
          "name": "tokenId",
          "type": "uint256"
        }
      ],
      "name": "transferFrom",
      "outputs": [],
      "stateMutability": "payable",
      "type": "function"
    },
    {
      "inputs": [
        {
          "internalType": "address",
          "name": "newOwner",
          "type": "address"
        }
      ],
      "name": "transferOwnership",
      "outputs": [],
      "stateMutability": "nonpayable",
      "type": "function"
    }
  ],
  "bytecode": "0x60806040526103e86009553480156200001757600080fd5b506040518060400160405280600981526020017f4e6f6168546f6b656e00000000000000000000000000000000000000000000008152506040518060400160405280600481526020017f4e4f414800000000000000000000000000000000000000000000000000000000815250620000a462000098620000e660201b60201c565b620000ee60201b60201c565b8160039081620000b5919062000431565b508060049081620000c7919062000431565b50620000d8620001b260201b60201c565b600181905550505062000518565b600033905090565b60008060009054906101000a900473ffffffffffffffffffffffffffffffffffffffff169050816000806101000a81548173ffffffffffffffffffffffffffffffffffffffff021916908373ffffffffffffffffffffffffffffffffffffffff1602179055508173ffffffffffffffffffffffffffffffffffffffff168173ffffffffffffffffffffffffffffffffffffffff167f8be0079c531659141344cd1fd0a4f28419497f9722a3daafe3b4186f6b6457e060405160405180910390a35050565b600090565b600081519050919050565b7f4e487b7100000000000000000000000000000000000000000000000000000000600052604160045260246000fd5b7f4e487b7100000000000000000000000000000000000000000000000000000000600052602260045260246000fd5b600060028204905060018216806200023957607f821691505b6020821081036200024f576200024e620001f1565b5b50919050565b60008190508160005260206000209050919050565b60006020601f8301049050919050565b600082821b905092915050565b600060088302620002b97fffffffffffffffffffffffffffffffffffffffffffffffffffffffffffffffff826200027a565b620002c586836200027a565b95508019841693508086168417925050509392505050565b6000819050919050565b6000819050919050565b6000620003126200030c6200030684620002dd565b620002e7565b620002dd565b9050919050565b6000819050919050565b6200032e83620002f1565b620003466200033d8262000319565b84845462000287565b825550505050565b600090565b6200035d6200034e565b6200036a81848462000323565b505050565b5b8181101562000392576200038660008262000353565b60018101905062000370565b5050565b601f821115620003e157620003ab8162000255565b620003b6846200026a565b81016020851015620003c6578190505b620003de620003d5856200026a565b8301826200036f565b50505b505050565b600082821c905092915050565b60006200040660001984600802620003e6565b1980831691505092915050565b6000620004218383620003f3565b9150826002028217905092915050565b6200043c82620001b7565b67ffffffffffffffff811115620004585762000457620001c2565b5b62000464825462000220565b6200047182828562000396565b600060209050601f831160018114620004a9576000841562000494578287015190505b620004a0858262000413565b86555062000510565b601f198416620004b98662000255565b60005b82811015620004e357848901518255600182019150602085019450602081019050620004bc565b86831015620005035784890151620004ff601f891682620003f3565b8355505b6001600288020188555050505b505050505050565b6125de80620005286000396000f3fe60806040526004361061011f5760003560e01c806370a08231116100a0578063a22cb46511610064578063a22cb465146103ac578063b88d4fde146103d5578063c87b56dd146103f1578063e985e9c51461042e578063f2fde38b1461046b5761011f565b806370a08231146102d9578063715018a6146103165780638da5cb5b1461032d57806395d89b4114610358578063a0712d68146103835761011f565b806323b872dd116100e757806323b872dd1461021057806342842e0e1461022c57806345c0f5331461024857806355f804b3146102735780636352211e1461029c5761011f565b806301ffc9a71461012457806306fdde0314610161578063081812fc1461018c578063095ea7b3146101c957806318160ddd146101e5575b600080fd5b34801561013057600080fd5b5061014b600480360381019061014691906118f0565b610494565b6040516101589190611938565b60405180910390f35b34801561016d57600080fd5b50610176610526565b60405161018391906119e3565b60405180910390f35b34801561019857600080fd5b506101b360048036038101906101ae9190611a3b565b6105b8565b6040516101c09190611aa9565b60405180910390f35b6101e360048036038101906101de9190611af0565b610637565b005b3480156101f157600080fd5b506101fa61077b565b6040516102079190611b3f565b60405180910390f35b61022a60048036038101906102259190611b5a565b610792565b005b61024660048036038101906102419190611b5a565b610ab4565b005b34801561025457600080fd5b5061025d610ad4565b60405161026a9190611b3f565b60405180910390f35b34801561027f57600080fd5b5061029a60048036038101906102959190611ce2565b610ada565b005b3480156102a857600080fd5b506102c360048036038101906102be9190611a3b565b610af5565b6040516102d09190611aa9565b60405180910390f35b3480156102e557600080fd5b5061030060048036038101906102fb9190611d2b565b610b07565b60405161030d9190611b3f565b60405180910390f35b34801561032257600080fd5b5061032b610bbf565b005b34801561033957600080fd5b50610342610bd3565b60405161034f9190611aa9565b60405180910390f35b34801561036457600080fd5b5061036d610bfc565b60405161037a91906119e3565b60405180910390f35b34801561038f57600080fd5b506103aa60048036038101906103a59190611a3b565b610c8e565b005b3480156103b857600080fd5b506103d360048036038101906103ce9190611d84565b610d42565b005b6103ef60048036038101906103ea9190611e65565b610e4d565b005b3480156103fd57600080fd5b5061041860048036038101906104139190611a3b565b610ec0565b60405161042591906119e3565b60405180910390f35b34801561043a57600080fd5b5061045560048036038101906104509190611ee8565b610f5e565b6040516104629190611938565b60405180910390f35b34801561047757600080fd5b50610492600480360381019061048d9190611d2b565b610ff2565b005b60006301ffc9a760e01b827bffffffffffffffffffffffffffffffffffffffffffffffffffffffff191614806104ef57506380ac58cd60e01b827bffffffffffffffffffffffffffffffffffffffffffffffffffffffff1916145b8061051f5750635b5e139f60e01b827bffffffffffffffffffffffffffffffffffffffffffffffffffffffff1916145b9050919050565b60606003805461053590611f57565b80601f016020809104026020016040519081016040528092919081815260200182805461056190611f57565b80156105ae5780601f10610583576101008083540402835291602001916105ae565b820191906000526020600020905b81548152906001019060200180831161059157829003601f168201915b5050505050905090565b60006105c382611075565b6105f9576040517fcf4700e400000000000000000000000000000000000000000000000000000000815260040160405180910390fd5b6007600083815260200190815260200160002060000160009054906101000a900473ffffffffffffffffffffffffffffffffffffffff169050919050565b600061064282610af5565b90508073ffffffffffffffffffffffffffffffffffffffff166106636110d4565b73ffffffffffffffffffffffffffffffffffffffff16146106c65761068f8161068a6110d4565b610f5e565b6106c5576040517fcfb3b94200000000000000000000000000000000000000000000000000000000815260040160405180910390fd5b5b826007600084815260200190815260200160002060000160006101000a81548173ffffffffffffffffffffffffffffffffffffffff021916908373ffffffffffffffffffffffffffffffffffffffff160217905550818373ffffffffffffffffffffffffffffffffffffffff168273ffffffffffffffffffffffffffffffffffffffff167f8c5be1e5ebec7d5bd14f71427d1e84f3dd0314c0f7b2291e5b200ac8c7c3b92560405160405180910390a4505050565b60006107856110dc565b6002546001540303905090565b600061079d826110e1565b90508373ffffffffffffffffffffffffffffffffffffffff168173ffffffffffffffffffffffffffffffffffffffff1614610804576040517fa114810000000000000000000000000000000000000000000000000000000000815260040160405180910390fd5b600080610810846111ad565b9150915061082681876108216110d4565b6111d4565b6108725761083b866108366110d4565b610f5e565b610871576040517f59c896be00000000000000000000000000000000000000000000000000000000815260040160405180910390fd5b5b600073ffffffffffffffffffffffffffffffffffffffff168573ffffffffffffffffffffffffffffffffffffffff16036108d8576040517fea553b3400000000000000000000000000000000000000000000000000000000815260040160405180910390fd5b6108e58686866001611218565b80156108f057600082555b600660008773ffffffffffffffffffffffffffffffffffffffff1673ffffffffffffffffffffffffffffffffffffffff168152602001908152602001600020600081546001900391905081905550600660008673ffffffffffffffffffffffffffffffffffffffff1673ffffffffffffffffffffffffffffffffffffffff16815260200190815260200160002060008154600101919050819055506109be8561099a88888761121e565b7c020000000000000000000000000000000000000000000000000000000017611246565b600560008681526020019081526020016000208190555060007c0200000000000000000000000000000000000000000000000000000000841603610a445760006001850190506000600560008381526020019081526020016000205403610a42576001548114610a41578360056000838152602001908152602001600020819055505b5b505b838573ffffffffffffffffffffffffffffffffffffffff168773ffffffffffffffffffffffffffffffffffffffff167fddf252ad1be2c89b69c2b068fc378daa952ba7f163c4a11628f55a4df523b3ef60405160405180910390a4610aac8686866001611271565b505050505050565b610acf83838360405180602001604052806000815250610e4d565b505050565b60095481565b610ae2611277565b80600a9081610af19190612134565b5050565b6000610b00826110e1565b9050919050565b60008073ffffffffffffffffffffffffffffffffffffffff168273ffffffffffffffffffffffffffffffffffffffff1603610b6e576040517f8f4eb60400000000000000000000000000000000000000000000000000000000815260040160405180910390fd5b67ffffffffffffffff600660008473ffffffffffffffffffffffffffffffffffffffff1673ffffffffffffffffffffffffffffffffffffffff16815260200190815260200160002054169050919050565b610bc7611277565b610bd160006112f5565b565b60008060009054906101000a900473ffffffffffffffffffffffffffffffffffffffff16905090565b606060048054610c0b90611f57565b80601f0160208091040260200160405190810160405280929190818152602001828054610c3790611f57565b8015610c845780601f10610c5957610100808354040283529160200191610c84565b820191906000526020600020905b815481529060010190602001808311610c6757829003601f168201915b5050505050905090565b600081118015610c9f575060058111155b610cde576040517f08c379a0000000000000000000000000000000000000000000000000000000008152600401610cd590612278565b60405180910390fd5b60095481610cea61077b565b610cf491906122c7565b1115610d35576040517f08c379a0000000000000000000000000000000000000000000000000000000008152600401610d2c90612347565b60405180910390fd5b610d3f33826113b9565b50565b8060086000610d4f6110d4565b73ffffffffffffffffffffffffffffffffffffffff1673ffffffffffffffffffffffffffffffffffffffff16815260200190815260200160002060008473ffffffffffffffffffffffffffffffffffffffff1673ffffffffffffffffffffffffffffffffffffffff16815260200190815260200160002060006101000a81548160ff0219169083151502179055508173ffffffffffffffffffffffffffffffffffffffff16610dfc6110d4565b73ffffffffffffffffffffffffffffffffffffffff167f17307eab39ab6107e8899845ad3d59bd9653f200f220920489ca2b5937696c3183604051610e419190611938565b60405180910390a35050565b610e58848484610792565b60008373ffffffffffffffffffffffffffffffffffffffff163b14610eba57610e83848484846113d7565b610eb9576040517fd1a57ed600000000000000000000000000000000000000000000000000000000815260040160405180910390fd5b5b50505050565b6060610ecb82611075565b610f01576040517fa14c4b5000000000000000000000000000000000000000000000000000000000815260040160405180910390fd5b6000610f0b611527565b90506000815103610f2b5760405180602001604052806000815250610f56565b80610f35846115b9565b604051602001610f469291906123a3565b6040516020818303038152906040525b915050919050565b6000600860008473ffffffffffffffffffffffffffffffffffffffff1673ffffffffffffffffffffffffffffffffffffffff16815260200190815260200160002060008373ffffffffffffffffffffffffffffffffffffffff1673ffffffffffffffffffffffffffffffffffffffff16815260200190815260200160002060009054906101000a900460ff16905092915050565b610ffa611277565b600073ffffffffffffffffffffffffffffffffffffffff168173ffffffffffffffffffffffffffffffffffffffff1603611069576040517f08c379a000000000000000000000000000000000000000000000000000000000815260040161106090612439565b60405180910390fd5b611072816112f5565b50565b6000816110806110dc565b1115801561108f575060015482105b80156110cd575060007c0100000000000000000000000000000000000000000000000000000000600560008581526020019081526020016000205416145b9050919050565b600033905090565b600090565b600080829050806110f06110dc565b11611176576001548110156111755760006005600083815260200190815260200160002054905060007c0100000000000000000000000000000000000000000000000000000000821603611173575b6000810361116957600560008360019003935083815260200190815260200160002054905061113f565b80925050506111a8565b505b5b6040517fdf2d9b4200000000000000000000000000000000000000000000000000000000815260040160405180910390fd5b919050565b60008060006007600085815260200190815260200160002090508092508254915050915091565b600073ffffffffffffffffffffffffffffffffffffffff8316925073ffffffffffffffffffffffffffffffffffffffff821691508382148383141790509392505050565b50505050565b60008060e883901c905060e8611235868684611609565b62ffffff16901b9150509392505050565b600073ffffffffffffffffffffffffffffffffffffffff83169250814260a01b178317905092915050565b50505050565b61127f611612565b73ffffffffffffffffffffffffffffffffffffffff1661129d610bd3565b73ffffffffffffffffffffffffffffffffffffffff16146112f3576040517f08c379a00000000000000000000000000000000000000000000000000000000081526004016112ea906124a5565b60405180910390fd5b565b60008060009054906101000a900473ffffffffffffffffffffffffffffffffffffffff169050816000806101000a81548173ffffffffffffffffffffffffffffffffffffffff021916908373ffffffffffffffffffffffffffffffffffffffff1602179055508173ffffffffffffffffffffffffffffffffffffffff168173ffffffffffffffffffffffffffffffffffffffff167f8be0079c531659141344cd1fd0a4f28419497f9722a3daafe3b4186f6b6457e060405160405180910390a35050565b6113d382826040518060200160405280600081525061161a565b5050565b60008373ffffffffffffffffffffffffffffffffffffffff1663150b7a026113fd6110d4565b8786866040518563ffffffff1660e01b815260040161141f949392919061251a565b6020604051808303816000875af192505050801561145b57506040513d601f19601f82011682018060405250810190611458919061257b565b60015b6114d4573d806000811461148b576040519150601f19603f3d011682016040523d82523d6000602084013e611490565b606091505b5060008151036114cc576040517fd1a57ed600000000000000000000000000000000000000000000000000000000815260040160405180910390fd5b805181602001fd5b63150b7a0260e01b7bffffffffffffffffffffffffffffffffffffffffffffffffffffffff1916817bffffffffffffffffffffffffffffffffffffffffffffffffffffffff191614915050949350505050565b6060600a805461153690611f57565b80601f016020809104026020016040519081016040528092919081815260200182805461156290611f57565b80156115af5780601f10611584576101008083540402835291602001916115af565b820191906000526020600020905b81548152906001019060200180831161159257829003601f168201915b5050505050905090565b606060a060405101806040526020810391506000825281835b6001156115f457600184039350600a81066030018453600a81049050806115d2575b50828103602084039350808452505050919050565b60009392505050565b600033905090565b61162483836116b8565b60008373ffffffffffffffffffffffffffffffffffffffff163b146116b35760006001549050600083820390505b61166560008683806001019450866113d7565b61169b576040517fd1a57ed600000000000000000000000000000000000000000000000000000000815260040160405180910390fd5b8181106116525781600154146116b057600080fd5b50505b505050565b60006001549050600082036116f9576040517fb562e8dd00000000000000000000000000000000000000000000000000000000815260040160405180910390fd5b6117066000848385611218565b600160406001901b178202600660008573ffffffffffffffffffffffffffffffffffffffff1673ffffffffffffffffffffffffffffffffffffffff1681526020019081526020016000206000828254019250508190555061177d8361176e600086600061121e565b61177785611874565b17611246565b6005600083815260200190815260200160002081905550600080838301905073ffffffffffffffffffffffffffffffffffffffff85169150828260007fddf252ad1be2c89b69c2b068fc378daa952ba7f163c4a11628f55a4df523b3ef600080a4600183015b81811461181e57808360007fddf252ad1be2c89b69c2b068fc378daa952ba7f163c4a11628f55a4df523b3ef600080a46001810190506117e3565b5060008203611859576040517f2e07630000000000000000000000000000000000000000000000000000000000815260040160405180910390fd5b80600181905550505061186f6000848385611271565b505050565b60006001821460e11b9050919050565b6000604051905090565b600080fd5b600080fd5b60007fffffffff0000000000000000000000000000000000000000000000000000000082169050919050565b6118cd81611898565b81146118d857600080fd5b50565b6000813590506118ea816118c4565b92915050565b6000602082840312156119065761190561188e565b5b6000611914848285016118db565b91505092915050565b60008115159050919050565b6119328161191d565b82525050565b600060208201905061194d6000830184611929565b92915050565b600081519050919050565b600082825260208201905092915050565b60005b8381101561198d578082015181840152602081019050611972565b60008484015250505050565b6000601f19601f8301169050919050565b60006119b582611953565b6119bf818561195e565b93506119cf81856020860161196f565b6119d881611999565b840191505092915050565b600060208201905081810360008301526119fd81846119aa565b905092915050565b6000819050919050565b611a1881611a05565b8114611a2357600080fd5b50565b600081359050611a3581611a0f565b92915050565b600060208284031215611a5157611a5061188e565b5b6000611a5f84828501611a26565b91505092915050565b600073ffffffffffffffffffffffffffffffffffffffff82169050919050565b6000611a9382611a68565b9050919050565b611aa381611a88565b82525050565b6000602082019050611abe6000830184611a9a565b92915050565b611acd81611a88565b8114611ad857600080fd5b50565b600081359050611aea81611ac4565b92915050565b60008060408385031215611b0757611b0661188e565b5b6000611b1585828601611adb565b9250506020611b2685828601611a26565b9150509250929050565b611b3981611a05565b82525050565b6000602082019050611b546000830184611b30565b92915050565b600080600060608486031215611b7357611b7261188e565b5b6000611b8186828701611adb565b9350506020611b9286828701611adb565b9250506040611ba386828701611a26565b9150509250925092565b600080fd5b600080fd5b7f4e487b7100000000000000000000000000000000000000000000000000000000600052604160045260246000fd5b611bef82611999565b810181811067ffffffffffffffff82111715611c0e57611c0d611bb7565b5b80604052505050565b6000611c21611884565b9050611c2d8282611be6565b919050565b600067ffffffffffffffff821115611c4d57611c4c611bb7565b5b611c5682611999565b9050602081019050919050565b82818337600083830152505050565b6000611c85611c8084611c32565b611c17565b905082815260208101848484011115611ca157611ca0611bb2565b5b611cac848285611c63565b509392505050565b600082601f830112611cc957611cc8611bad565b5b8135611cd9848260208601611c72565b91505092915050565b600060208284031215611cf857611cf761188e565b5b600082013567ffffffffffffffff811115611d1657611d15611893565b5b611d2284828501611cb4565b91505092915050565b600060208284031215611d4157611d4061188e565b5b6000611d4f84828501611adb565b91505092915050565b611d618161191d565b8114611d6c57600080fd5b50565b600081359050611d7e81611d58565b92915050565b60008060408385031215611d9b57611d9a61188e565b5b6000611da985828601611adb565b9250506020611dba85828601611d6f565b9150509250929050565b600067ffffffffffffffff821115611ddf57611dde611bb7565b5b611de882611999565b9050602081019050919050565b6000611e08611e0384611dc4565b611c17565b905082815260208101848484011115611e2457611e23611bb2565b5b611e2f848285611c63565b509392505050565b600082601f830112611e4c57611e4b611bad565b5b8135611e5c848260208601611df5565b91505092915050565b60008060008060808587031215611e7f57611e7e61188e565b5b6000611e8d87828801611adb565b9450506020611e9e87828801611adb565b9350506040611eaf87828801611a26565b925050606085013567ffffffffffffffff811115611ed057611ecf611893565b5b611edc87828801611e37565b91505092959194509250565b60008060408385031215611eff57611efe61188e565b5b6000611f0d85828601611adb565b9250506020611f1e85828601611adb565b9150509250929050565b7f4e487b7100000000000000000000000000000000000000000000000000000000600052602260045260246000fd5b60006002820490506001821680611f6f57607f821691505b602082108103611f8257611f81611f28565b5b50919050565b60008190508160005260206000209050919050565b60006020601f8301049050919050565b600082821b905092915050565b600060088302611fea7fffffffffffffffffffffffffffffffffffffffffffffffffffffffffffffffff82611fad565b611ff48683611fad565b95508019841693508086168417925050509392505050565b6000819050919050565b600061203161202c61202784611a05565b61200c565b611a05565b9050919050565b6000819050919050565b61204b83612016565b61205f61205782612038565b848454611fba565b825550505050565b600090565b612074612067565b61207f818484612042565b505050565b5b818110156120a35761209860008261206c565b600181019050612085565b5050565b601f8211156120e8576120b981611f88565b6120c284611f9d565b810160208510156120d1578190505b6120e56120dd85611f9d565b830182612084565b50505b505050565b600082821c905092915050565b600061210b600019846008026120ed565b1980831691505092915050565b600061212483836120fa565b9150826002028217905092915050565b61213d82611953565b67ffffffffffffffff81111561215657612155611bb7565b5b6121608254611f57565b61216b8282856120a7565b600060209050601f83116001811461219e576000841561218c578287015190505b6121968582612118565b8655506121fe565b601f1984166121ac86611f88565b60005b828110156121d4578489015182556001820191506020850194506020810190506121af565b868310156121f157848901516121ed601f8916826120fa565b8355505b6001600288020188555050505b505050505050565b7f596f752063616e2774206d696e74206d6f7265207468616e2035204e6f61682060008201527f4e46547300000000000000000000000000000000000000000000000000000000602082015250565b600061226260248361195e565b915061226d82612206565b604082019050919050565b6000602082019050818103600083015261229181612255565b9050919050565b7f4e487b7100000000000000000000000000000000000000000000000000000000600052601160045260246000fd5b60006122d282611a05565b91506122dd83611a05565b92508282019050808211156122f5576122f4612298565b5b92915050565b7f45786365656473206d617820737570706c790000000000000000000000000000600082015250565b600061233160128361195e565b915061233c826122fb565b602082019050919050565b6000602082019050818103600083015261236081612324565b9050919050565b600081905092915050565b600061237d82611953565b6123878185612367565b935061239781856020860161196f565b80840191505092915050565b60006123af8285612372565b91506123bb8284612372565b91508190509392505050565b7f4f776e61626c653a206e6577206f776e657220697320746865207a65726f206160008201527f6464726573730000000000000000000000000000000000000000000000000000602082015250565b600061242360268361195e565b915061242e826123c7565b604082019050919050565b6000602082019050818103600083015261245281612416565b9050919050565b7f4f776e61626c653a2063616c6c6572206973206e6f7420746865206f776e6572600082015250565b600061248f60208361195e565b915061249a82612459565b602082019050919050565b600060208201905081810360008301526124be81612482565b9050919050565b600081519050919050565b600082825260208201905092915050565b60006124ec826124c5565b6124f681856124d0565b935061250681856020860161196f565b61250f81611999565b840191505092915050565b600060808201905061252f6000830187611a9a565b61253c6020830186611a9a565b6125496040830185611b30565b818103606083015261255b81846124e1565b905095945050505050565b600081519050612575816118c4565b92915050565b6000602082840312156125915761259061188e565b5b600061259f84828501612566565b9150509291505056fea2646970667358221220356097fb8e5789231c65fdcfc53a9f20993605ec681692af392254dbcfe32d8964736f6c63430008110033",
  "linkReferences": {},
  "deployedLinkReferences": {}
}