{
  "_format": "hh-sol-artifact-1",
  "contractName": "OnChainNoah",
  "sourceName": "contracts/OnChainNoah.sol",
  "abi": [
    {
      "inputs": [],
      "stateMutability": "nonpayable",
      "type": "constructor"
    },
    {
      "anonymous": false,
      "inputs": [
        {
          "indexed": true,
          "internalType": "address",
          "name": "owner",
          "type": "address"
        },
        {
          "indexed": true,
          "internalType": "address",
          "name": "approved",
          "type": "address"
        },
        {
          "indexed": true,
          "internalType": "uint256",
          "name": "tokenId",
          "type": "uint256"
        }
      ],
      "name": "Approval",
      "type": "event"
    },
    {
      "anonymous": false,
      "inputs": [
        {
          "indexed": true,
          "internalType": "address",
          "name": "owner",
          "type": "address"
        },
        {
          "indexed": true,
          "internalType": "address",
          "name": "operator",
          "type": "address"
        },
        {
          "indexed": false,
          "internalType": "bool",
          "name": "approved",
          "type": "bool"
        }
      ],
      "name": "ApprovalForAll",
      "type": "event"
    },
    {
      "anonymous": false,
      "inputs": [
        {
          "indexed": true,
          "internalType": "address",
          "name": "previousOwner",
          "type": "address"
        },
        {
          "indexed": true,
          "internalType": "address",
          "name": "newOwner",
          "type": "address"
        }
      ],
      "name": "OwnershipTransferred",
      "type": "event"
    },
    {
      "anonymous": false,
      "inputs": [
        {
          "indexed": true,
          "internalType": "address",
          "name": "from",
          "type": "address"
        },
        {
          "indexed": true,
          "internalType": "address",
          "name": "to",
          "type": "address"
        },
        {
          "indexed": true,
          "internalType": "uint256",
          "name": "tokenId",
          "type": "uint256"
        }
      ],
      "name": "Transfer",
      "type": "event"
    },
    {
      "inputs": [
        {
          "internalType": "address",
          "name": "to",
          "type": "address"
        },
        {
          "internalType": "uint256",
          "name": "tokenId",
          "type": "uint256"
        }
      ],
      "name": "approve",
      "outputs": [],
      "stateMutability": "nonpayable",
      "type": "function"
    },
    {
      "inputs": [
        {
          "internalType": "address",
          "name": "owner",
          "type": "address"
        }
      ],
      "name": "balanceOf",
      "outputs": [
        {
          "internalType": "uint256",
          "name": "",
          "type": "uint256"
        }
      ],
      "stateMutability": "view",
      "type": "function"
    },
    {
      "inputs": [
        {
          "internalType": "uint256",
          "name": "tokenId",
          "type": "uint256"
        }
      ],
      "name": "getApproved",
      "outputs": [
        {
          "internalType": "address",
          "name": "",
          "type": "address"
        }
      ],
      "stateMutability": "view",
      "type": "function"
    },
    {
      "inputs": [
        {
          "internalType": "address",
          "name": "owner",
          "type": "address"
        },
        {
          "internalType": "address",
          "name": "operator",
          "type": "address"
        }
      ],
      "name": "isApprovedForAll",
      "outputs": [
        {
          "internalType": "bool",
          "name": "",
          "type": "bool"
        }
      ],
      "stateMutability": "view",
      "type": "function"
    },
    {
      "inputs": [],
      "name": "mint",
      "outputs": [],
      "stateMutability": "nonpayable",
      "type": "function"
    },
    {
      "inputs": [],
      "name": "name",
      "outputs": [
        {
          "internalType": "string",
          "name": "",
          "type": "string"
        }
      ],
      "stateMutability": "view",
      "type": "function"
    },
    {
      "inputs": [],
      "name": "owner",
      "outputs": [
        {
          "internalType": "address",
          "name": "",
          "type": "address"
        }
      ],
      "stateMutability": "view",
      "type": "function"
    },
    {
      "inputs": [
        {
          "internalType": "uint256",
          "name": "tokenId",
          "type": "uint256"
        }
      ],
      "name": "ownerOf",
      "outputs": [
        {
          "internalType": "address",
          "name": "",
          "type": "address"
        }
      ],
      "stateMutability": "view",
      "type": "function"
    },
    {
      "inputs": [],
      "name": "renounceOwnership",
      "outputs": [],
      "stateMutability": "nonpayable",
      "type": "function"
    },
    {
      "inputs": [
        {
          "internalType": "address",
          "name": "from",
          "type": "address"
        },
        {
          "internalType": "address",
          "name": "to",
          "type": "address"
        },
        {
          "internalType": "uint256",
          "name": "tokenId",
          "type": "uint256"
        }
      ],
      "name": "safeTransferFrom",
      "outputs": [],
      "stateMutability": "nonpayable",
      "type": "function"
    },
    {
      "inputs": [
        {
          "internalType": "address",
          "name": "from",
          "type": "address"
        },
        {
          "internalType": "address",
          "name": "to",
          "type": "address"
        },
        {
          "internalType": "uint256",
          "name": "tokenId",
          "type": "uint256"
        },
        {
          "internalType": "bytes",
          "name": "data",
          "type": "bytes"
        }
      ],
      "name": "safeTransferFrom",
      "outputs": [],
      "stateMutability": "nonpayable",
      "type": "function"
    },
    {
      "inputs": [
        {
          "internalType": "address",
          "name": "operator",
          "type": "address"
        },
        {
          "internalType": "bool",
          "name": "approved",
          "type": "bool"
        }
      ],
      "name": "setApprovalForAll",
      "outputs": [],
      "stateMutability": "nonpayable",
      "type": "function"
    },
    {
      "inputs": [
        {
          "internalType": "bytes4",
          "name": "interfaceId",
          "type": "bytes4"
        }
      ],
      "name": "supportsInterface",
      "outputs": [
        {
          "internalType": "bool",
          "name": "",
          "type": "bool"
        }
      ],
      "stateMutability": "view",
      "type": "function"
    },
    {
      "inputs": [],
      "name": "symbol",
      "outputs": [
        {
          "internalType": "string",
          "name": "",
          "type": "string"
        }
      ],
      "stateMutability": "view",
      "type": "function"
    },
    {
      "inputs": [
        {
          "internalType": "uint256",
          "name": "tokenId",
          "type": "uint256"
        }
      ],
      "name": "tokenURI",
      "outputs": [
        {
          "internalType": "string",
          "name": "",
          "type": "string"
        }
      ],
      "stateMutability": "view",
      "type": "function"
    },
    {
      "inputs": [
        {
          "internalType": "address",
          "name": "from",
          "type": "address"
        },
        {
          "internalType": "address",
          "name": "to",
          "type": "address"
        },
        {
          "internalType": "uint256",
          "name": "tokenId",
          "type": "uint256"
        }
      ],
      "name": "transferFrom",
      "outputs": [],
      "stateMutability": "nonpayable",
      "type": "function"
    },
    {
      "inputs": [
        {
          "internalType": "address",
          "name": "newOwner",
          "type": "address"
        }
      ],
      "name": "transferOwnership",
      "outputs": [],
      "stateMutability": "nonpayable",
      "type": "function"
    }
  ],
  "bytecode": "0x60806040523480156200001157600080fd5b506040518060400160405280600981526020017f4e6f6168546f6b656e00000000000000000000000000000000000000000000008152506040518060400160405280600481526020017f4e4f4148000000000000000000000000000000000000000000000000000000008152506200009e62000092620000ca60201b60201c565b620000d260201b60201c565b8160019081620000af919062000410565b508060029081620000c1919062000410565b505050620004f7565b600033905090565b60008060009054906101000a900473ffffffffffffffffffffffffffffffffffffffff169050816000806101000a81548173ffffffffffffffffffffffffffffffffffffffff021916908373ffffffffffffffffffffffffffffffffffffffff1602179055508173ffffffffffffffffffffffffffffffffffffffff168173ffffffffffffffffffffffffffffffffffffffff167f8be0079c531659141344cd1fd0a4f28419497f9722a3daafe3b4186f6b6457e060405160405180910390a35050565b600081519050919050565b7f4e487b7100000000000000000000000000000000000000000000000000000000600052604160045260246000fd5b7f4e487b7100000000000000000000000000000000000000000000000000000000600052602260045260246000fd5b600060028204905060018216806200021857607f821691505b6020821081036200022e576200022d620001d0565b5b50919050565b60008190508160005260206000209050919050565b60006020601f8301049050919050565b600082821b905092915050565b600060088302620002987fffffffffffffffffffffffffffffffffffffffffffffffffffffffffffffffff8262000259565b620002a4868362000259565b95508019841693508086168417925050509392505050565b6000819050919050565b6000819050919050565b6000620002f1620002eb620002e584620002bc565b620002c6565b620002bc565b9050919050565b6000819050919050565b6200030d83620002d0565b620003256200031c82620002f8565b84845462000266565b825550505050565b600090565b6200033c6200032d565b6200034981848462000302565b505050565b5b8181101562000371576200036560008262000332565b6001810190506200034f565b5050565b601f821115620003c0576200038a8162000234565b620003958462000249565b81016020851015620003a5578190505b620003bd620003b48562000249565b8301826200034e565b50505b505050565b600082821c905092915050565b6000620003e560001984600802620003c5565b1980831691505092915050565b6000620004008383620003d2565b9150826002028217905092915050565b6200041b8262000196565b67ffffffffffffffff811115620004375762000436620001a1565b5b620004438254620001ff565b6200045082828562000375565b600060209050601f83116001811462000488576000841562000473578287015190505b6200047f8582620003f2565b865550620004ef565b601f198416620004988662000234565b60005b82811015620004c2578489015182556001820191506020850194506020810190506200049b565b86831015620004e25784890151620004de601f891682620003d2565b8355505b6001600288020188555050505b505050505050565b61308580620005076000396000f3fe608060405234801561001057600080fd5b506004361061010b5760003560e01c806370a08231116100a2578063a22cb46511610071578063a22cb46514610292578063b88d4fde146102ae578063c87b56dd146102ca578063e985e9c5146102fa578063f2fde38b1461032a5761010b565b806370a082311461021c578063715018a61461024c5780638da5cb5b1461025657806395d89b41146102745761010b565b80631249c58b116100de5780631249c58b146101aa57806323b872dd146101b457806342842e0e146101d05780636352211e146101ec5761010b565b806301ffc9a71461011057806306fdde0314610140578063081812fc1461015e578063095ea7b31461018e575b600080fd5b61012a60048036038101906101259190611a62565b610346565b6040516101379190611aaa565b60405180910390f35b610148610428565b6040516101559190611b55565b60405180910390f35b61017860048036038101906101739190611bad565b6104ba565b6040516101859190611c1b565b60405180910390f35b6101a860048036038101906101a39190611c62565b610500565b005b6101b2610617565b005b6101ce60048036038101906101c99190611ca2565b610657565b005b6101ea60048036038101906101e59190611ca2565b6106b7565b005b61020660048036038101906102019190611bad565b6106d7565b6040516102139190611c1b565b60405180910390f35b61023660048036038101906102319190611cf5565b610788565b6040516102439190611d31565b60405180910390f35b61025461083f565b005b61025e610853565b60405161026b9190611c1b565b60405180910390f35b61027c61087c565b6040516102899190611b55565b60405180910390f35b6102ac60048036038101906102a79190611d78565b61090e565b005b6102c860048036038101906102c39190611eed565b610924565b005b6102e460048036038101906102df9190611bad565b610986565b6040516102f19190611b55565b60405180910390f35b610314600480360381019061030f9190611f70565b610a98565b6040516103219190611aaa565b60405180910390f35b610344600480360381019061033f9190611cf5565b610b2c565b005b60007f80ac58cd000000000000000000000000000000000000000000000000000000007bffffffffffffffffffffffffffffffffffffffffffffffffffffffff1916827bffffffffffffffffffffffffffffffffffffffffffffffffffffffff1916148061041157507f5b5e139f000000000000000000000000000000000000000000000000000000007bffffffffffffffffffffffffffffffffffffffffffffffffffffffff1916827bffffffffffffffffffffffffffffffffffffffffffffffffffffffff1916145b80610421575061042082610baf565b5b9050919050565b60606001805461043790611fdf565b80601f016020809104026020016040519081016040528092919081815260200182805461046390611fdf565b80156104b05780601f10610485576101008083540402835291602001916104b0565b820191906000526020600020905b81548152906001019060200180831161049357829003601f168201915b5050505050905090565b60006104c582610c19565b6005600083815260200190815260200160002060009054906101000a900473ffffffffffffffffffffffffffffffffffffffff169050919050565b600061050b826106d7565b90508073ffffffffffffffffffffffffffffffffffffffff168373ffffffffffffffffffffffffffffffffffffffff160361057b576040517f08c379a000000000000000000000000000000000000000000000000000000000815260040161057290612082565b60405180910390fd5b8073ffffffffffffffffffffffffffffffffffffffff1661059a610c64565b73ffffffffffffffffffffffffffffffffffffffff1614806105c957506105c8816105c3610c64565b610a98565b5b610608576040517f08c379a00000000000000000000000000000000000000000000000000000000081526004016105ff90612114565b60405180910390fd5b6106128383610c6c565b505050565b60006106236008610d25565b905061062f3382610d33565b61065481604051806103e001604052806103a18152602001612caf6103a19139610d51565b50565b610668610662610c64565b82610dbe565b6106a7576040517f08c379a000000000000000000000000000000000000000000000000000000000815260040161069e906121a6565b60405180910390fd5b6106b2838383610e53565b505050565b6106d283838360405180602001604052806000815250610924565b505050565b6000806003600084815260200190815260200160002060009054906101000a900473ffffffffffffffffffffffffffffffffffffffff169050600073ffffffffffffffffffffffffffffffffffffffff168173ffffffffffffffffffffffffffffffffffffffff160361077f576040517f08c379a000000000000000000000000000000000000000000000000000000000815260040161077690612212565b60405180910390fd5b80915050919050565b60008073ffffffffffffffffffffffffffffffffffffffff168273ffffffffffffffffffffffffffffffffffffffff16036107f8576040517f08c379a00000000000000000000000000000000000000000000000000000000081526004016107ef906122a4565b60405180910390fd5b600460008373ffffffffffffffffffffffffffffffffffffffff1673ffffffffffffffffffffffffffffffffffffffff168152602001908152602001600020549050919050565b6108476110b9565b6108516000611137565b565b60008060009054906101000a900473ffffffffffffffffffffffffffffffffffffffff16905090565b60606002805461088b90611fdf565b80601f01602080910402602001604051908101604052809291908181526020018280546108b790611fdf565b80156109045780601f106108d957610100808354040283529160200191610904565b820191906000526020600020905b8154815290600101906020018083116108e757829003601f168201915b5050505050905090565b610920610919610c64565b83836111fb565b5050565b61093561092f610c64565b83610dbe565b610974576040517f08c379a000000000000000000000000000000000000000000000000000000000815260040161096b906121a6565b60405180910390fd5b61098084848484611367565b50505050565b606061099182610c19565b60006007600084815260200190815260200160002080546109b190611fdf565b80601f01602080910402602001604051908101604052809291908181526020018280546109dd90611fdf565b8015610a2a5780601f106109ff57610100808354040283529160200191610a2a565b820191906000526020600020905b815481529060010190602001808311610a0d57829003601f168201915b505050505090506000610a3b6113c3565b90506000815103610a50578192505050610a93565b600082511115610a85578082604051602001610a6d929190612300565b60405160208183030381529060405292505050610a93565b610a8e846113da565b925050505b919050565b6000600660008473ffffffffffffffffffffffffffffffffffffffff1673ffffffffffffffffffffffffffffffffffffffff16815260200190815260200160002060008373ffffffffffffffffffffffffffffffffffffffff1673ffffffffffffffffffffffffffffffffffffffff16815260200190815260200160002060009054906101000a900460ff16905092915050565b610b346110b9565b600073ffffffffffffffffffffffffffffffffffffffff168173ffffffffffffffffffffffffffffffffffffffff1603610ba3576040517f08c379a0000000000000000000000000000000000000000000000000000000008152600401610b9a90612396565b60405180910390fd5b610bac81611137565b50565b60007f01ffc9a7000000000000000000000000000000000000000000000000000000007bffffffffffffffffffffffffffffffffffffffffffffffffffffffff1916827bffffffffffffffffffffffffffffffffffffffffffffffffffffffff1916149050919050565b610c2281611442565b610c61576040517f08c379a0000000000000000000000000000000000000000000000000000000008152600401610c5890612212565b60405180910390fd5b50565b600033905090565b816005600083815260200190815260200160002060006101000a81548173ffffffffffffffffffffffffffffffffffffffff021916908373ffffffffffffffffffffffffffffffffffffffff160217905550808273ffffffffffffffffffffffffffffffffffffffff16610cdf836106d7565b73ffffffffffffffffffffffffffffffffffffffff167f8c5be1e5ebec7d5bd14f71427d1e84f3dd0314c0f7b2291e5b200ac8c7c3b92560405160405180910390a45050565b600081600001549050919050565b610d4d8282604051806020016040528060008152506114ae565b5050565b610d5a82611442565b610d99576040517f08c379a0000000000000000000000000000000000000000000000000000000008152600401610d9090612428565b60405180910390fd5b80600760008481526020019081526020016000209081610db991906125f4565b505050565b600080610dca836106d7565b90508073ffffffffffffffffffffffffffffffffffffffff168473ffffffffffffffffffffffffffffffffffffffff161480610e0c5750610e0b8185610a98565b5b80610e4a57508373ffffffffffffffffffffffffffffffffffffffff16610e32846104ba565b73ffffffffffffffffffffffffffffffffffffffff16145b91505092915050565b8273ffffffffffffffffffffffffffffffffffffffff16610e73826106d7565b73ffffffffffffffffffffffffffffffffffffffff1614610ec9576040517f08c379a0000000000000000000000000000000000000000000000000000000008152600401610ec090612738565b60405180910390fd5b600073ffffffffffffffffffffffffffffffffffffffff168273ffffffffffffffffffffffffffffffffffffffff1603610f38576040517f08c379a0000000000000000000000000000000000000000000000000000000008152600401610f2f906127ca565b60405180910390fd5b610f43838383611509565b610f4e600082610c6c565b6001600460008573ffffffffffffffffffffffffffffffffffffffff1673ffffffffffffffffffffffffffffffffffffffff1681526020019081526020016000206000828254610f9e9190612819565b925050819055506001600460008473ffffffffffffffffffffffffffffffffffffffff1673ffffffffffffffffffffffffffffffffffffffff1681526020019081526020016000206000828254610ff5919061284d565b92505081905550816003600083815260200190815260200160002060006101000a81548173ffffffffffffffffffffffffffffffffffffffff021916908373ffffffffffffffffffffffffffffffffffffffff160217905550808273ffffffffffffffffffffffffffffffffffffffff168473ffffffffffffffffffffffffffffffffffffffff167fddf252ad1be2c89b69c2b068fc378daa952ba7f163c4a11628f55a4df523b3ef60405160405180910390a46110b483838361150e565b505050565b6110c1610c64565b73ffffffffffffffffffffffffffffffffffffffff166110df610853565b73ffffffffffffffffffffffffffffffffffffffff1614611135576040517f08c379a000000000000000000000000000000000000000000000000000000000815260040161112c906128cd565b60405180910390fd5b565b60008060009054906101000a900473ffffffffffffffffffffffffffffffffffffffff169050816000806101000a81548173ffffffffffffffffffffffffffffffffffffffff021916908373ffffffffffffffffffffffffffffffffffffffff1602179055508173ffffffffffffffffffffffffffffffffffffffff168173ffffffffffffffffffffffffffffffffffffffff167f8be0079c531659141344cd1fd0a4f28419497f9722a3daafe3b4186f6b6457e060405160405180910390a35050565b8173ffffffffffffffffffffffffffffffffffffffff168373ffffffffffffffffffffffffffffffffffffffff1603611269576040517f08c379a000000000000000000000000000000000000000000000000000000000815260040161126090612939565b60405180910390fd5b80600660008573ffffffffffffffffffffffffffffffffffffffff1673ffffffffffffffffffffffffffffffffffffffff16815260200190815260200160002060008473ffffffffffffffffffffffffffffffffffffffff1673ffffffffffffffffffffffffffffffffffffffff16815260200190815260200160002060006101000a81548160ff0219169083151502179055508173ffffffffffffffffffffffffffffffffffffffff168373ffffffffffffffffffffffffffffffffffffffff167f17307eab39ab6107e8899845ad3d59bd9653f200f220920489ca2b5937696c318360405161135a9190611aaa565b60405180910390a3505050565b611372848484610e53565b61137e84848484611513565b6113bd576040517f08c379a00000000000000000000000000000000000000000000000000000000081526004016113b4906129cb565b60405180910390fd5b50505050565b606060405180602001604052806000815250905090565b60606113e582610c19565b60006113ef6113c3565b9050600081511161140f576040518060200160405280600081525061143a565b806114198461169a565b60405160200161142a929190612300565b6040516020818303038152906040525b915050919050565b60008073ffffffffffffffffffffffffffffffffffffffff166003600084815260200190815260200160002060009054906101000a900473ffffffffffffffffffffffffffffffffffffffff1673ffffffffffffffffffffffffffffffffffffffff1614159050919050565b6114b883836117fa565b6114c56000848484611513565b611504576040517f08c379a00000000000000000000000000000000000000000000000000000000081526004016114fb906129cb565b60405180910390fd5b505050565b505050565b505050565b60006115348473ffffffffffffffffffffffffffffffffffffffff166119d3565b1561168d578373ffffffffffffffffffffffffffffffffffffffff1663150b7a0261155d610c64565b8786866040518563ffffffff1660e01b815260040161157f9493929190612a40565b6020604051808303816000875af19250505080156115bb57506040513d601f19601f820116820180604052508101906115b89190612aa1565b60015b61163d573d80600081146115eb576040519150601f19603f3d011682016040523d82523d6000602084013e6115f0565b606091505b506000815103611635576040517f08c379a000000000000000000000000000000000000000000000000000000000815260040161162c906129cb565b60405180910390fd5b805181602001fd5b63150b7a0260e01b7bffffffffffffffffffffffffffffffffffffffffffffffffffffffff1916817bffffffffffffffffffffffffffffffffffffffffffffffffffffffff191614915050611692565b600190505b949350505050565b6060600082036116e1576040518060400160405280600181526020017f300000000000000000000000000000000000000000000000000000000000000081525090506117f5565b600082905060005b600082146117135780806116fc90612ace565b915050600a8261170c9190612b45565b91506116e9565b60008167ffffffffffffffff81111561172f5761172e611dc2565b5b6040519080825280601f01601f1916602001820160405280156117615781602001600182028036833780820191505090505b5090505b600085146117ee5760018261177a9190612819565b9150600a856117899190612b76565b6030611795919061284d565b60f81b8183815181106117ab576117aa612ba7565b5b60200101907effffffffffffffffffffffffffffffffffffffffffffffffffffffffffffff1916908160001a905350600a856117e79190612b45565b9450611765565b8093505050505b919050565b600073ffffffffffffffffffffffffffffffffffffffff168273ffffffffffffffffffffffffffffffffffffffff1603611869576040517f08c379a000000000000000000000000000000000000000000000000000000000815260040161186090612c22565b60405180910390fd5b61187281611442565b156118b2576040517f08c379a00000000000000000000000000000000000000000000000000000000081526004016118a990612c8e565b60405180910390fd5b6118be60008383611509565b6001600460008473ffffffffffffffffffffffffffffffffffffffff1673ffffffffffffffffffffffffffffffffffffffff168152602001908152602001600020600082825461190e919061284d565b92505081905550816003600083815260200190815260200160002060006101000a81548173ffffffffffffffffffffffffffffffffffffffff021916908373ffffffffffffffffffffffffffffffffffffffff160217905550808273ffffffffffffffffffffffffffffffffffffffff16600073ffffffffffffffffffffffffffffffffffffffff167fddf252ad1be2c89b69c2b068fc378daa952ba7f163c4a11628f55a4df523b3ef60405160405180910390a46119cf6000838361150e565b5050565b6000808273ffffffffffffffffffffffffffffffffffffffff163b119050919050565b6000604051905090565b600080fd5b600080fd5b60007fffffffff0000000000000000000000000000000000000000000000000000000082169050919050565b611a3f81611a0a565b8114611a4a57600080fd5b50565b600081359050611a5c81611a36565b92915050565b600060208284031215611a7857611a77611a00565b5b6000611a8684828501611a4d565b91505092915050565b60008115159050919050565b611aa481611a8f565b82525050565b6000602082019050611abf6000830184611a9b565b92915050565b600081519050919050565b600082825260208201905092915050565b60005b83811015611aff578082015181840152602081019050611ae4565b60008484015250505050565b6000601f19601f8301169050919050565b6000611b2782611ac5565b611b318185611ad0565b9350611b41818560208601611ae1565b611b4a81611b0b565b840191505092915050565b60006020820190508181036000830152611b6f8184611b1c565b905092915050565b6000819050919050565b611b8a81611b77565b8114611b9557600080fd5b50565b600081359050611ba781611b81565b92915050565b600060208284031215611bc357611bc2611a00565b5b6000611bd184828501611b98565b91505092915050565b600073ffffffffffffffffffffffffffffffffffffffff82169050919050565b6000611c0582611bda565b9050919050565b611c1581611bfa565b82525050565b6000602082019050611c306000830184611c0c565b92915050565b611c3f81611bfa565b8114611c4a57600080fd5b50565b600081359050611c5c81611c36565b92915050565b60008060408385031215611c7957611c78611a00565b5b6000611c8785828601611c4d565b9250506020611c9885828601611b98565b9150509250929050565b600080600060608486031215611cbb57611cba611a00565b5b6000611cc986828701611c4d565b9350506020611cda86828701611c4d565b9250506040611ceb86828701611b98565b9150509250925092565b600060208284031215611d0b57611d0a611a00565b5b6000611d1984828501611c4d565b91505092915050565b611d2b81611b77565b82525050565b6000602082019050611d466000830184611d22565b92915050565b611d5581611a8f565b8114611d6057600080fd5b50565b600081359050611d7281611d4c565b92915050565b60008060408385031215611d8f57611d8e611a00565b5b6000611d9d85828601611c4d565b9250506020611dae85828601611d63565b9150509250929050565b600080fd5b600080fd5b7f4e487b7100000000000000000000000000000000000000000000000000000000600052604160045260246000fd5b611dfa82611b0b565b810181811067ffffffffffffffff82111715611e1957611e18611dc2565b5b80604052505050565b6000611e2c6119f6565b9050611e388282611df1565b919050565b600067ffffffffffffffff821115611e5857611e57611dc2565b5b611e6182611b0b565b9050602081019050919050565b82818337600083830152505050565b6000611e90611e8b84611e3d565b611e22565b905082815260208101848484011115611eac57611eab611dbd565b5b611eb7848285611e6e565b509392505050565b600082601f830112611ed457611ed3611db8565b5b8135611ee4848260208601611e7d565b91505092915050565b60008060008060808587031215611f0757611f06611a00565b5b6000611f1587828801611c4d565b9450506020611f2687828801611c4d565b9350506040611f3787828801611b98565b925050606085013567ffffffffffffffff811115611f5857611f57611a05565b5b611f6487828801611ebf565b91505092959194509250565b60008060408385031215611f8757611f86611a00565b5b6000611f9585828601611c4d565b9250506020611fa685828601611c4d565b9150509250929050565b7f4e487b7100000000000000000000000000000000000000000000000000000000600052602260045260246000fd5b60006002820490506001821680611ff757607f821691505b60208210810361200a57612009611fb0565b5b50919050565b7f4552433732313a20617070726f76616c20746f2063757272656e74206f776e6560008201527f7200000000000000000000000000000000000000000000000000000000000000602082015250565b600061206c602183611ad0565b915061207782612010565b604082019050919050565b6000602082019050818103600083015261209b8161205f565b9050919050565b7f4552433732313a20617070726f76652063616c6c6572206973206e6f7420746f60008201527f6b656e206f776e6572206e6f7220617070726f76656420666f7220616c6c0000602082015250565b60006120fe603e83611ad0565b9150612109826120a2565b604082019050919050565b6000602082019050818103600083015261212d816120f1565b9050919050565b7f4552433732313a2063616c6c6572206973206e6f7420746f6b656e206f776e6560008201527f72206e6f7220617070726f766564000000000000000000000000000000000000602082015250565b6000612190602e83611ad0565b915061219b82612134565b604082019050919050565b600060208201905081810360008301526121bf81612183565b9050919050565b7f4552433732313a20696e76616c696420746f6b656e2049440000000000000000600082015250565b60006121fc601883611ad0565b9150612207826121c6565b602082019050919050565b6000602082019050818103600083015261222b816121ef565b9050919050565b7f4552433732313a2061646472657373207a65726f206973206e6f74206120766160008201527f6c6964206f776e65720000000000000000000000000000000000000000000000602082015250565b600061228e602983611ad0565b915061229982612232565b604082019050919050565b600060208201905081810360008301526122bd81612281565b9050919050565b600081905092915050565b60006122da82611ac5565b6122e481856122c4565b93506122f4818560208601611ae1565b80840191505092915050565b600061230c82856122cf565b915061231882846122cf565b91508190509392505050565b7f4f776e61626c653a206e6577206f776e657220697320746865207a65726f206160008201527f6464726573730000000000000000000000000000000000000000000000000000602082015250565b6000612380602683611ad0565b915061238b82612324565b604082019050919050565b600060208201905081810360008301526123af81612373565b9050919050565b7f45524337323155524953746f726167653a2055524920736574206f66206e6f6e60008201527f6578697374656e7420746f6b656e000000000000000000000000000000000000602082015250565b6000612412602e83611ad0565b915061241d826123b6565b604082019050919050565b6000602082019050818103600083015261244181612405565b9050919050565b60008190508160005260206000209050919050565b60006020601f8301049050919050565b600082821b905092915050565b6000600883026124aa7fffffffffffffffffffffffffffffffffffffffffffffffffffffffffffffffff8261246d565b6124b4868361246d565b95508019841693508086168417925050509392505050565b6000819050919050565b60006124f16124ec6124e784611b77565b6124cc565b611b77565b9050919050565b6000819050919050565b61250b836124d6565b61251f612517826124f8565b84845461247a565b825550505050565b600090565b612534612527565b61253f818484612502565b505050565b5b818110156125635761255860008261252c565b600181019050612545565b5050565b601f8211156125a85761257981612448565b6125828461245d565b81016020851015612591578190505b6125a561259d8561245d565b830182612544565b50505b505050565b600082821c905092915050565b60006125cb600019846008026125ad565b1980831691505092915050565b60006125e483836125ba565b9150826002028217905092915050565b6125fd82611ac5565b67ffffffffffffffff81111561261657612615611dc2565b5b6126208254611fdf565b61262b828285612567565b600060209050601f83116001811461265e576000841561264c578287015190505b61265685826125d8565b8655506126be565b601f19841661266c86612448565b60005b828110156126945784890151825560018201915060208501945060208101905061266f565b868310156126b157848901516126ad601f8916826125ba565b8355505b6001600288020188555050505b505050505050565b7f4552433732313a207472616e736665722066726f6d20696e636f72726563742060008201527f6f776e6572000000000000000000000000000000000000000000000000000000602082015250565b6000612722602583611ad0565b915061272d826126c6565b604082019050919050565b6000602082019050818103600083015261275181612715565b9050919050565b7f4552433732313a207472616e7366657220746f20746865207a65726f2061646460008201527f7265737300000000000000000000000000000000000000000000000000000000602082015250565b60006127b4602483611ad0565b91506127bf82612758565b604082019050919050565b600060208201905081810360008301526127e3816127a7565b9050919050565b7f4e487b7100000000000000000000000000000000000000000000000000000000600052601160045260246000fd5b600061282482611b77565b915061282f83611b77565b9250828203905081811115612847576128466127ea565b5b92915050565b600061285882611b77565b915061286383611b77565b925082820190508082111561287b5761287a6127ea565b5b92915050565b7f4f776e61626c653a2063616c6c6572206973206e6f7420746865206f776e6572600082015250565b60006128b7602083611ad0565b91506128c282612881565b602082019050919050565b600060208201905081810360008301526128e6816128aa565b9050919050565b7f4552433732313a20617070726f766520746f2063616c6c657200000000000000600082015250565b6000612923601983611ad0565b915061292e826128ed565b602082019050919050565b6000602082019050818103600083015261295281612916565b9050919050565b7f4552433732313a207472616e7366657220746f206e6f6e20455243373231526560008201527f63656976657220696d706c656d656e7465720000000000000000000000000000602082015250565b60006129b5603283611ad0565b91506129c082612959565b604082019050919050565b600060208201905081810360008301526129e4816129a8565b9050919050565b600081519050919050565b600082825260208201905092915050565b6000612a12826129eb565b612a1c81856129f6565b9350612a2c818560208601611ae1565b612a3581611b0b565b840191505092915050565b6000608082019050612a556000830187611c0c565b612a626020830186611c0c565b612a6f6040830185611d22565b8181036060830152612a818184612a07565b905095945050505050565b600081519050612a9b81611a36565b92915050565b600060208284031215612ab757612ab6611a00565b5b6000612ac584828501612a8c565b91505092915050565b6000612ad982611b77565b91507fffffffffffffffffffffffffffffffffffffffffffffffffffffffffffffffff8203612b0b57612b0a6127ea565b5b600182019050919050565b7f4e487b7100000000000000000000000000000000000000000000000000000000600052601260045260246000fd5b6000612b5082611b77565b9150612b5b83611b77565b925082612b6b57612b6a612b16565b5b828204905092915050565b6000612b8182611b77565b9150612b8c83611b77565b925082612b9c57612b9b612b16565b5b828206905092915050565b7f4e487b7100000000000000000000000000000000000000000000000000000000600052603260045260246000fd5b7f4552433732313a206d696e7420746f20746865207a65726f2061646472657373600082015250565b6000612c0c602083611ad0565b9150612c1782612bd6565b602082019050919050565b60006020820190508181036000830152612c3b81612bff565b9050919050565b7f4552433732313a20746f6b656e20616c7265616479206d696e74656400000000600082015250565b6000612c78601c83611ad0565b9150612c8382612c42565b602082019050919050565b60006020820190508181036000830152612ca781612c6b565b905091905056fe646174613a6170706c69636174696f6e2f6a736f6e3b6261736536342c65776f6749434167496d3568625755694f6941695432354461474670626b3576595767694c416f6749434167496d526c63324e796158423061573975496a6f67496b45675a6e4a6c63326767626a4268614342306232746c6269776762576c756447566b49473975494564765a584a736153346751334a6c5958526c5a4342545a5842304c6941794d4449794969774b4943416749434a706257466e5a53493649434a6b595852684f6d6c745957646c4c334e325a79743462577737596d467a5a5459304c464249546a4a6165554930596c643464574e364d476c685346497759305276646b777a5a444e6b6554557a54586b31646d4e7459335a4e616b463354554d35656d527459326c4a53454a35576c684f62474e75576d785257453533576c644f4d465674526a4268567a67355357356f546d46584e56705556327831535563786246705955576c4a53467077576c686b5132497a5a7a6c4a616b466e54554e42656b35555157644e656c563353576f3053306c445157644a524868365a456873633170554e48565a62555a36576c4e434e306c48576e4269523363325355686b62324659556d785065554a74596a49314d457858576d68695632787a5a5652765a324d79566e6c6856316b3353556461646d4a755558526a4d6d7732576c52765a303155556e646c52484e6e5a6c5233646d4d7a556a56695231557251326c425a306c445154686a62565a715a454e434d324658556a42685244427054565242643070545357646852315a77576a4a6f4d4642545358684e5245467353576c436257465865484e5155307070596b6447616d46355357644d656a524c53554e425a306c4565444261574767775355686e4f556c715658644b55306c6e5a565177615535555157784a61554a71596b6447656d4e364d476c5a62555a36576c4e4a5a3170484f585268567a566f596d355264466c74526e706156336877596d31564f556c744d58426152314a7a576c4e4a5a325248566a526b517a466f596d314f6232497a53546c4a62544677576b645363317054535374575232687759336c4363474e35516d684a527a52335756646e5a3252484f584a61567a527a5355644764556c464e5564575130497a5956685362306c484d57786b52305a725756685361456c49546a42694d307073576b4e43646d4a704d57706852305a77596d6b305a3142444f54426157476777554764764f45777a546a4a61656a513949677039a2646970667358221220a3f8a9c8822940c8b12ac05b1cd7c2ea788590c0f80b8c5eae76ab20428958f064736f6c63430008110033",
  "linkReferences": {},
  "deployedLinkReferences": {}
}