{
  "_format": "hh-sol-artifact-1",
  "contractName": "OnChainNoah",
  "sourceName": "contracts/OnChainNoah.sol",
  "abi": [
    {
      "inputs": [],
      "stateMutability": "nonpayable",
      "type": "constructor"
    },
    {
      "anonymous": false,
      "inputs": [
        {
          "indexed": true,
          "internalType": "address",
          "name": "owner",
          "type": "address"
        },
        {
          "indexed": true,
          "internalType": "address",
          "name": "approved",
          "type": "address"
        },
        {
          "indexed": true,
          "internalType": "uint256",
          "name": "tokenId",
          "type": "uint256"
        }
      ],
      "name": "Approval",
      "type": "event"
    },
    {
      "anonymous": false,
      "inputs": [
        {
          "indexed": true,
          "internalType": "address",
          "name": "owner",
          "type": "address"
        },
        {
          "indexed": true,
          "internalType": "address",
          "name": "operator",
          "type": "address"
        },
        {
          "indexed": false,
          "internalType": "bool",
          "name": "approved",
          "type": "bool"
        }
      ],
      "name": "ApprovalForAll",
      "type": "event"
    },
    {
      "anonymous": false,
      "inputs": [
        {
          "indexed": true,
          "internalType": "address",
          "name": "previousOwner",
          "type": "address"
        },
        {
          "indexed": true,
          "internalType": "address",
          "name": "newOwner",
          "type": "address"
        }
      ],
      "name": "OwnershipTransferred",
      "type": "event"
    },
    {
      "anonymous": false,
      "inputs": [
        {
          "indexed": true,
          "internalType": "address",
          "name": "from",
          "type": "address"
        },
        {
          "indexed": true,
          "internalType": "address",
          "name": "to",
          "type": "address"
        },
        {
          "indexed": true,
          "internalType": "uint256",
          "name": "tokenId",
          "type": "uint256"
        }
      ],
      "name": "Transfer",
      "type": "event"
    },
    {
      "inputs": [
        {
          "internalType": "address",
          "name": "to",
          "type": "address"
        },
        {
          "internalType": "uint256",
          "name": "tokenId",
          "type": "uint256"
        }
      ],
      "name": "approve",
      "outputs": [],
      "stateMutability": "nonpayable",
      "type": "function"
    },
    {
      "inputs": [
        {
          "internalType": "address",
          "name": "owner",
          "type": "address"
        }
      ],
      "name": "balanceOf",
      "outputs": [
        {
          "internalType": "uint256",
          "name": "",
          "type": "uint256"
        }
      ],
      "stateMutability": "view",
      "type": "function"
    },
    {
      "inputs": [
        {
          "internalType": "uint256",
          "name": "tokenId",
          "type": "uint256"
        }
      ],
      "name": "getApproved",
      "outputs": [
        {
          "internalType": "address",
          "name": "",
          "type": "address"
        }
      ],
      "stateMutability": "view",
      "type": "function"
    },
    {
      "inputs": [
        {
          "internalType": "address",
          "name": "owner",
          "type": "address"
        },
        {
          "internalType": "address",
          "name": "operator",
          "type": "address"
        }
      ],
      "name": "isApprovedForAll",
      "outputs": [
        {
          "internalType": "bool",
          "name": "",
          "type": "bool"
        }
      ],
      "stateMutability": "view",
      "type": "function"
    },
    {
      "inputs": [
        {
          "internalType": "uint256",
          "name": "_amount",
          "type": "uint256"
        }
      ],
      "name": "mint",
      "outputs": [],
      "stateMutability": "nonpayable",
      "type": "function"
    },
    {
      "inputs": [],
      "name": "name",
      "outputs": [
        {
          "internalType": "string",
          "name": "",
          "type": "string"
        }
      ],
      "stateMutability": "view",
      "type": "function"
    },
    {
      "inputs": [],
      "name": "owner",
      "outputs": [
        {
          "internalType": "address",
          "name": "",
          "type": "address"
        }
      ],
      "stateMutability": "view",
      "type": "function"
    },
    {
      "inputs": [
        {
          "internalType": "uint256",
          "name": "tokenId",
          "type": "uint256"
        }
      ],
      "name": "ownerOf",
      "outputs": [
        {
          "internalType": "address",
          "name": "",
          "type": "address"
        }
      ],
      "stateMutability": "view",
      "type": "function"
    },
    {
      "inputs": [],
      "name": "renounceOwnership",
      "outputs": [],
      "stateMutability": "nonpayable",
      "type": "function"
    },
    {
      "inputs": [
        {
          "internalType": "address",
          "name": "from",
          "type": "address"
        },
        {
          "internalType": "address",
          "name": "to",
          "type": "address"
        },
        {
          "internalType": "uint256",
          "name": "tokenId",
          "type": "uint256"
        }
      ],
      "name": "safeTransferFrom",
      "outputs": [],
      "stateMutability": "nonpayable",
      "type": "function"
    },
    {
      "inputs": [
        {
          "internalType": "address",
          "name": "from",
          "type": "address"
        },
        {
          "internalType": "address",
          "name": "to",
          "type": "address"
        },
        {
          "internalType": "uint256",
          "name": "tokenId",
          "type": "uint256"
        },
        {
          "internalType": "bytes",
          "name": "data",
          "type": "bytes"
        }
      ],
      "name": "safeTransferFrom",
      "outputs": [],
      "stateMutability": "nonpayable",
      "type": "function"
    },
    {
      "inputs": [
        {
          "internalType": "address",
          "name": "operator",
          "type": "address"
        },
        {
          "internalType": "bool",
          "name": "approved",
          "type": "bool"
        }
      ],
      "name": "setApprovalForAll",
      "outputs": [],
      "stateMutability": "nonpayable",
      "type": "function"
    },
    {
      "inputs": [
        {
          "internalType": "bytes4",
          "name": "interfaceId",
          "type": "bytes4"
        }
      ],
      "name": "supportsInterface",
      "outputs": [
        {
          "internalType": "bool",
          "name": "",
          "type": "bool"
        }
      ],
      "stateMutability": "view",
      "type": "function"
    },
    {
      "inputs": [],
      "name": "symbol",
      "outputs": [
        {
          "internalType": "string",
          "name": "",
          "type": "string"
        }
      ],
      "stateMutability": "view",
      "type": "function"
    },
    {
      "inputs": [
        {
          "internalType": "uint256",
          "name": "tokenId",
          "type": "uint256"
        }
      ],
      "name": "tokenURI",
      "outputs": [
        {
          "internalType": "string",
          "name": "",
          "type": "string"
        }
      ],
      "stateMutability": "view",
      "type": "function"
    },
    {
      "inputs": [
        {
          "internalType": "address",
          "name": "from",
          "type": "address"
        },
        {
          "internalType": "address",
          "name": "to",
          "type": "address"
        },
        {
          "internalType": "uint256",
          "name": "tokenId",
          "type": "uint256"
        }
      ],
      "name": "transferFrom",
      "outputs": [],
      "stateMutability": "nonpayable",
      "type": "function"
    },
    {
      "inputs": [
        {
          "internalType": "address",
          "name": "newOwner",
          "type": "address"
        }
      ],
      "name": "transferOwnership",
      "outputs": [],
      "stateMutability": "nonpayable",
      "type": "function"
    }
  ],
  "bytecode": "0x60806040523480156200001157600080fd5b506040518060400160405280600981526020017f4e6f6168546f6b656e00000000000000000000000000000000000000000000008152506040518060400160405280600481526020017f4e4f4148000000000000000000000000000000000000000000000000000000008152506200009e62000092620000ca60201b60201c565b620000d260201b60201c565b8160019081620000af919062000410565b508060029081620000c1919062000410565b505050620004f7565b600033905090565b60008060009054906101000a900473ffffffffffffffffffffffffffffffffffffffff169050816000806101000a81548173ffffffffffffffffffffffffffffffffffffffff021916908373ffffffffffffffffffffffffffffffffffffffff1602179055508173ffffffffffffffffffffffffffffffffffffffff168173ffffffffffffffffffffffffffffffffffffffff167f8be0079c531659141344cd1fd0a4f28419497f9722a3daafe3b4186f6b6457e060405160405180910390a35050565b600081519050919050565b7f4e487b7100000000000000000000000000000000000000000000000000000000600052604160045260246000fd5b7f4e487b7100000000000000000000000000000000000000000000000000000000600052602260045260246000fd5b600060028204905060018216806200021857607f821691505b6020821081036200022e576200022d620001d0565b5b50919050565b60008190508160005260206000209050919050565b60006020601f8301049050919050565b600082821b905092915050565b600060088302620002987fffffffffffffffffffffffffffffffffffffffffffffffffffffffffffffffff8262000259565b620002a4868362000259565b95508019841693508086168417925050509392505050565b6000819050919050565b6000819050919050565b6000620002f1620002eb620002e584620002bc565b620002c6565b620002bc565b9050919050565b6000819050919050565b6200030d83620002d0565b620003256200031c82620002f8565b84845462000266565b825550505050565b600090565b6200033c6200032d565b6200034981848462000302565b505050565b5b8181101562000371576200036560008262000332565b6001810190506200034f565b5050565b601f821115620003c0576200038a8162000234565b620003958462000249565b81016020851015620003a5578190505b620003bd620003b48562000249565b8301826200034e565b50505b505050565b600082821c905092915050565b6000620003e560001984600802620003c5565b1980831691505092915050565b6000620004008383620003d2565b9150826002028217905092915050565b6200041b8262000196565b67ffffffffffffffff811115620004375762000436620001a1565b5b620004438254620001ff565b6200045082828562000375565b600060209050601f83116001811462000488576000841562000473578287015190505b6200047f8582620003f2565b865550620004ef565b601f198416620004988662000234565b60005b82811015620004c2578489015182556001820191506020850194506020810190506200049b565b86831015620004e25784890151620004de601f891682620003d2565b8355505b6001600288020188555050505b505050505050565b61309080620005076000396000f3fe608060405234801561001057600080fd5b506004361061010b5760003560e01c8063715018a6116100a2578063a22cb46511610071578063a22cb465146102a4578063b88d4fde146102c0578063c87b56dd146102dc578063e985e9c51461030c578063f2fde38b1461033c5761010b565b8063715018a6146102425780638da5cb5b1461024c57806395d89b411461026a578063a0712d68146102885761010b565b806323b872dd116100de57806323b872dd146101aa57806342842e0e146101c65780636352211e146101e257806370a08231146102125761010b565b806301ffc9a71461011057806306fdde0314610140578063081812fc1461015e578063095ea7b31461018e575b600080fd5b61012a60048036038101906101259190611a75565b610358565b6040516101379190611abd565b60405180910390f35b61014861043a565b6040516101559190611b68565b60405180910390f35b61017860048036038101906101739190611bc0565b6104cc565b6040516101859190611c2e565b60405180910390f35b6101a860048036038101906101a39190611c75565b610512565b005b6101c460048036038101906101bf9190611cb5565b610629565b005b6101e060048036038101906101db9190611cb5565b610689565b005b6101fc60048036038101906101f79190611bc0565b6106a9565b6040516102099190611c2e565b60405180910390f35b61022c60048036038101906102279190611d08565b61075a565b6040516102399190611d44565b60405180910390f35b61024a610811565b005b610254610825565b6040516102619190611c2e565b60405180910390f35b61027261084e565b60405161027f9190611b68565b60405180910390f35b6102a2600480360381019061029d9190611bc0565b6108e0565b005b6102be60048036038101906102b99190611d8b565b610921565b005b6102da60048036038101906102d59190611f00565b610937565b005b6102f660048036038101906102f19190611bc0565b610999565b6040516103039190611b68565b60405180910390f35b61032660048036038101906103219190611f83565b610aab565b6040516103339190611abd565b60405180910390f35b61035660048036038101906103519190611d08565b610b3f565b005b60007f80ac58cd000000000000000000000000000000000000000000000000000000007bffffffffffffffffffffffffffffffffffffffffffffffffffffffff1916827bffffffffffffffffffffffffffffffffffffffffffffffffffffffff1916148061042357507f5b5e139f000000000000000000000000000000000000000000000000000000007bffffffffffffffffffffffffffffffffffffffffffffffffffffffff1916827bffffffffffffffffffffffffffffffffffffffffffffffffffffffff1916145b80610433575061043282610bc2565b5b9050919050565b60606001805461044990611ff2565b80601f016020809104026020016040519081016040528092919081815260200182805461047590611ff2565b80156104c25780601f10610497576101008083540402835291602001916104c2565b820191906000526020600020905b8154815290600101906020018083116104a557829003601f168201915b5050505050905090565b60006104d782610c2c565b6005600083815260200190815260200160002060009054906101000a900473ffffffffffffffffffffffffffffffffffffffff169050919050565b600061051d826106a9565b90508073ffffffffffffffffffffffffffffffffffffffff168373ffffffffffffffffffffffffffffffffffffffff160361058d576040517f08c379a000000000000000000000000000000000000000000000000000000000815260040161058490612095565b60405180910390fd5b8073ffffffffffffffffffffffffffffffffffffffff166105ac610c77565b73ffffffffffffffffffffffffffffffffffffffff1614806105db57506105da816105d5610c77565b610aab565b5b61061a576040517f08c379a000000000000000000000000000000000000000000000000000000000815260040161061190612127565b60405180910390fd5b6106248383610c7f565b505050565b61063a610634610c77565b82610d38565b610679576040517f08c379a0000000000000000000000000000000000000000000000000000000008152600401610670906121b9565b60405180910390fd5b610684838383610dcd565b505050565b6106a483838360405180602001604052806000815250610937565b505050565b6000806003600084815260200190815260200160002060009054906101000a900473ffffffffffffffffffffffffffffffffffffffff169050600073ffffffffffffffffffffffffffffffffffffffff168173ffffffffffffffffffffffffffffffffffffffff1603610751576040517f08c379a000000000000000000000000000000000000000000000000000000000815260040161074890612225565b60405180910390fd5b80915050919050565b60008073ffffffffffffffffffffffffffffffffffffffff168273ffffffffffffffffffffffffffffffffffffffff16036107ca576040517f08c379a00000000000000000000000000000000000000000000000000000000081526004016107c1906122b7565b60405180910390fd5b600460008373ffffffffffffffffffffffffffffffffffffffff1673ffffffffffffffffffffffffffffffffffffffff168152602001908152602001600020549050919050565b610819611033565b61082360006110b1565b565b60008060009054906101000a900473ffffffffffffffffffffffffffffffffffffffff16905090565b60606002805461085d90611ff2565b80601f016020809104026020016040519081016040528092919081815260200182805461088990611ff2565b80156108d65780601f106108ab576101008083540402835291602001916108d6565b820191906000526020600020905b8154815290600101906020018083116108b957829003601f168201915b5050505050905090565b60006108ec6008611175565b90506108f83383611183565b61091d81604051806103c001604052806103998152602001612cc261039991396111a1565b5050565b61093361092c610c77565b838361120e565b5050565b610948610942610c77565b83610d38565b610987576040517f08c379a000000000000000000000000000000000000000000000000000000000815260040161097e906121b9565b60405180910390fd5b6109938484848461137a565b50505050565b60606109a482610c2c565b60006007600084815260200190815260200160002080546109c490611ff2565b80601f01602080910402602001604051908101604052809291908181526020018280546109f090611ff2565b8015610a3d5780601f10610a1257610100808354040283529160200191610a3d565b820191906000526020600020905b815481529060010190602001808311610a2057829003601f168201915b505050505090506000610a4e6113d6565b90506000815103610a63578192505050610aa6565b600082511115610a98578082604051602001610a80929190612313565b60405160208183030381529060405292505050610aa6565b610aa1846113ed565b925050505b919050565b6000600660008473ffffffffffffffffffffffffffffffffffffffff1673ffffffffffffffffffffffffffffffffffffffff16815260200190815260200160002060008373ffffffffffffffffffffffffffffffffffffffff1673ffffffffffffffffffffffffffffffffffffffff16815260200190815260200160002060009054906101000a900460ff16905092915050565b610b47611033565b600073ffffffffffffffffffffffffffffffffffffffff168173ffffffffffffffffffffffffffffffffffffffff1603610bb6576040517f08c379a0000000000000000000000000000000000000000000000000000000008152600401610bad906123a9565b60405180910390fd5b610bbf816110b1565b50565b60007f01ffc9a7000000000000000000000000000000000000000000000000000000007bffffffffffffffffffffffffffffffffffffffffffffffffffffffff1916827bffffffffffffffffffffffffffffffffffffffffffffffffffffffff1916149050919050565b610c3581611455565b610c74576040517f08c379a0000000000000000000000000000000000000000000000000000000008152600401610c6b90612225565b60405180910390fd5b50565b600033905090565b816005600083815260200190815260200160002060006101000a81548173ffffffffffffffffffffffffffffffffffffffff021916908373ffffffffffffffffffffffffffffffffffffffff160217905550808273ffffffffffffffffffffffffffffffffffffffff16610cf2836106a9565b73ffffffffffffffffffffffffffffffffffffffff167f8c5be1e5ebec7d5bd14f71427d1e84f3dd0314c0f7b2291e5b200ac8c7c3b92560405160405180910390a45050565b600080610d44836106a9565b90508073ffffffffffffffffffffffffffffffffffffffff168473ffffffffffffffffffffffffffffffffffffffff161480610d865750610d858185610aab565b5b80610dc457508373ffffffffffffffffffffffffffffffffffffffff16610dac846104cc565b73ffffffffffffffffffffffffffffffffffffffff16145b91505092915050565b8273ffffffffffffffffffffffffffffffffffffffff16610ded826106a9565b73ffffffffffffffffffffffffffffffffffffffff1614610e43576040517f08c379a0000000000000000000000000000000000000000000000000000000008152600401610e3a9061243b565b60405180910390fd5b600073ffffffffffffffffffffffffffffffffffffffff168273ffffffffffffffffffffffffffffffffffffffff1603610eb2576040517f08c379a0000000000000000000000000000000000000000000000000000000008152600401610ea9906124cd565b60405180910390fd5b610ebd8383836114c1565b610ec8600082610c7f565b6001600460008573ffffffffffffffffffffffffffffffffffffffff1673ffffffffffffffffffffffffffffffffffffffff1681526020019081526020016000206000828254610f18919061251c565b925050819055506001600460008473ffffffffffffffffffffffffffffffffffffffff1673ffffffffffffffffffffffffffffffffffffffff1681526020019081526020016000206000828254610f6f9190612550565b92505081905550816003600083815260200190815260200160002060006101000a81548173ffffffffffffffffffffffffffffffffffffffff021916908373ffffffffffffffffffffffffffffffffffffffff160217905550808273ffffffffffffffffffffffffffffffffffffffff168473ffffffffffffffffffffffffffffffffffffffff167fddf252ad1be2c89b69c2b068fc378daa952ba7f163c4a11628f55a4df523b3ef60405160405180910390a461102e8383836114c6565b505050565b61103b610c77565b73ffffffffffffffffffffffffffffffffffffffff16611059610825565b73ffffffffffffffffffffffffffffffffffffffff16146110af576040517f08c379a00000000000000000000000000000000000000000000000000000000081526004016110a6906125d0565b60405180910390fd5b565b60008060009054906101000a900473ffffffffffffffffffffffffffffffffffffffff169050816000806101000a81548173ffffffffffffffffffffffffffffffffffffffff021916908373ffffffffffffffffffffffffffffffffffffffff1602179055508173ffffffffffffffffffffffffffffffffffffffff168173ffffffffffffffffffffffffffffffffffffffff167f8be0079c531659141344cd1fd0a4f28419497f9722a3daafe3b4186f6b6457e060405160405180910390a35050565b600081600001549050919050565b61119d8282604051806020016040528060008152506114cb565b5050565b6111aa82611455565b6111e9576040517f08c379a00000000000000000000000000000000000000000000000000000000081526004016111e090612662565b60405180910390fd5b80600760008481526020019081526020016000209081611209919061282e565b505050565b8173ffffffffffffffffffffffffffffffffffffffff168373ffffffffffffffffffffffffffffffffffffffff160361127c576040517f08c379a00000000000000000000000000000000000000000000000000000000081526004016112739061294c565b60405180910390fd5b80600660008573ffffffffffffffffffffffffffffffffffffffff1673ffffffffffffffffffffffffffffffffffffffff16815260200190815260200160002060008473ffffffffffffffffffffffffffffffffffffffff1673ffffffffffffffffffffffffffffffffffffffff16815260200190815260200160002060006101000a81548160ff0219169083151502179055508173ffffffffffffffffffffffffffffffffffffffff168373ffffffffffffffffffffffffffffffffffffffff167f17307eab39ab6107e8899845ad3d59bd9653f200f220920489ca2b5937696c318360405161136d9190611abd565b60405180910390a3505050565b611385848484610dcd565b61139184848484611526565b6113d0576040517f08c379a00000000000000000000000000000000000000000000000000000000081526004016113c7906129de565b60405180910390fd5b50505050565b606060405180602001604052806000815250905090565b60606113f882610c2c565b60006114026113d6565b90506000815111611422576040518060200160405280600081525061144d565b8061142c846116ad565b60405160200161143d929190612313565b6040516020818303038152906040525b915050919050565b60008073ffffffffffffffffffffffffffffffffffffffff166003600084815260200190815260200160002060009054906101000a900473ffffffffffffffffffffffffffffffffffffffff1673ffffffffffffffffffffffffffffffffffffffff1614159050919050565b505050565b505050565b6114d5838361180d565b6114e26000848484611526565b611521576040517f08c379a0000000000000000000000000000000000000000000000000000000008152600401611518906129de565b60405180910390fd5b505050565b60006115478473ffffffffffffffffffffffffffffffffffffffff166119e6565b156116a0578373ffffffffffffffffffffffffffffffffffffffff1663150b7a02611570610c77565b8786866040518563ffffffff1660e01b81526004016115929493929190612a53565b6020604051808303816000875af19250505080156115ce57506040513d601f19601f820116820180604052508101906115cb9190612ab4565b60015b611650573d80600081146115fe576040519150601f19603f3d011682016040523d82523d6000602084013e611603565b606091505b506000815103611648576040517f08c379a000000000000000000000000000000000000000000000000000000000815260040161163f906129de565b60405180910390fd5b805181602001fd5b63150b7a0260e01b7bffffffffffffffffffffffffffffffffffffffffffffffffffffffff1916817bffffffffffffffffffffffffffffffffffffffffffffffffffffffff1916149150506116a5565b600190505b949350505050565b6060600082036116f4576040518060400160405280600181526020017f30000000000000000000000000000000000000000000000000000000000000008152509050611808565b600082905060005b6000821461172657808061170f90612ae1565b915050600a8261171f9190612b58565b91506116fc565b60008167ffffffffffffffff81111561174257611741611dd5565b5b6040519080825280601f01601f1916602001820160405280156117745781602001600182028036833780820191505090505b5090505b600085146118015760018261178d919061251c565b9150600a8561179c9190612b89565b60306117a89190612550565b60f81b8183815181106117be576117bd612bba565b5b60200101907effffffffffffffffffffffffffffffffffffffffffffffffffffffffffffff1916908160001a905350600a856117fa9190612b58565b9450611778565b8093505050505b919050565b600073ffffffffffffffffffffffffffffffffffffffff168273ffffffffffffffffffffffffffffffffffffffff160361187c576040517f08c379a000000000000000000000000000000000000000000000000000000000815260040161187390612c35565b60405180910390fd5b61188581611455565b156118c5576040517f08c379a00000000000000000000000000000000000000000000000000000000081526004016118bc90612ca1565b60405180910390fd5b6118d1600083836114c1565b6001600460008473ffffffffffffffffffffffffffffffffffffffff1673ffffffffffffffffffffffffffffffffffffffff16815260200190815260200160002060008282546119219190612550565b92505081905550816003600083815260200190815260200160002060006101000a81548173ffffffffffffffffffffffffffffffffffffffff021916908373ffffffffffffffffffffffffffffffffffffffff160217905550808273ffffffffffffffffffffffffffffffffffffffff16600073ffffffffffffffffffffffffffffffffffffffff167fddf252ad1be2c89b69c2b068fc378daa952ba7f163c4a11628f55a4df523b3ef60405160405180910390a46119e2600083836114c6565b5050565b6000808273ffffffffffffffffffffffffffffffffffffffff163b119050919050565b6000604051905090565b600080fd5b600080fd5b60007fffffffff0000000000000000000000000000000000000000000000000000000082169050919050565b611a5281611a1d565b8114611a5d57600080fd5b50565b600081359050611a6f81611a49565b92915050565b600060208284031215611a8b57611a8a611a13565b5b6000611a9984828501611a60565b91505092915050565b60008115159050919050565b611ab781611aa2565b82525050565b6000602082019050611ad26000830184611aae565b92915050565b600081519050919050565b600082825260208201905092915050565b60005b83811015611b12578082015181840152602081019050611af7565b60008484015250505050565b6000601f19601f8301169050919050565b6000611b3a82611ad8565b611b448185611ae3565b9350611b54818560208601611af4565b611b5d81611b1e565b840191505092915050565b60006020820190508181036000830152611b828184611b2f565b905092915050565b6000819050919050565b611b9d81611b8a565b8114611ba857600080fd5b50565b600081359050611bba81611b94565b92915050565b600060208284031215611bd657611bd5611a13565b5b6000611be484828501611bab565b91505092915050565b600073ffffffffffffffffffffffffffffffffffffffff82169050919050565b6000611c1882611bed565b9050919050565b611c2881611c0d565b82525050565b6000602082019050611c436000830184611c1f565b92915050565b611c5281611c0d565b8114611c5d57600080fd5b50565b600081359050611c6f81611c49565b92915050565b60008060408385031215611c8c57611c8b611a13565b5b6000611c9a85828601611c60565b9250506020611cab85828601611bab565b9150509250929050565b600080600060608486031215611cce57611ccd611a13565b5b6000611cdc86828701611c60565b9350506020611ced86828701611c60565b9250506040611cfe86828701611bab565b9150509250925092565b600060208284031215611d1e57611d1d611a13565b5b6000611d2c84828501611c60565b91505092915050565b611d3e81611b8a565b82525050565b6000602082019050611d596000830184611d35565b92915050565b611d6881611aa2565b8114611d7357600080fd5b50565b600081359050611d8581611d5f565b92915050565b60008060408385031215611da257611da1611a13565b5b6000611db085828601611c60565b9250506020611dc185828601611d76565b9150509250929050565b600080fd5b600080fd5b7f4e487b7100000000000000000000000000000000000000000000000000000000600052604160045260246000fd5b611e0d82611b1e565b810181811067ffffffffffffffff82111715611e2c57611e2b611dd5565b5b80604052505050565b6000611e3f611a09565b9050611e4b8282611e04565b919050565b600067ffffffffffffffff821115611e6b57611e6a611dd5565b5b611e7482611b1e565b9050602081019050919050565b82818337600083830152505050565b6000611ea3611e9e84611e50565b611e35565b905082815260208101848484011115611ebf57611ebe611dd0565b5b611eca848285611e81565b509392505050565b600082601f830112611ee757611ee6611dcb565b5b8135611ef7848260208601611e90565b91505092915050565b60008060008060808587031215611f1a57611f19611a13565b5b6000611f2887828801611c60565b9450506020611f3987828801611c60565b9350506040611f4a87828801611bab565b925050606085013567ffffffffffffffff811115611f6b57611f6a611a18565b5b611f7787828801611ed2565b91505092959194509250565b60008060408385031215611f9a57611f99611a13565b5b6000611fa885828601611c60565b9250506020611fb985828601611c60565b9150509250929050565b7f4e487b7100000000000000000000000000000000000000000000000000000000600052602260045260246000fd5b6000600282049050600182168061200a57607f821691505b60208210810361201d5761201c611fc3565b5b50919050565b7f4552433732313a20617070726f76616c20746f2063757272656e74206f776e6560008201527f7200000000000000000000000000000000000000000000000000000000000000602082015250565b600061207f602183611ae3565b915061208a82612023565b604082019050919050565b600060208201905081810360008301526120ae81612072565b9050919050565b7f4552433732313a20617070726f76652063616c6c6572206973206e6f7420746f60008201527f6b656e206f776e6572206e6f7220617070726f76656420666f7220616c6c0000602082015250565b6000612111603e83611ae3565b915061211c826120b5565b604082019050919050565b6000602082019050818103600083015261214081612104565b9050919050565b7f4552433732313a2063616c6c6572206973206e6f7420746f6b656e206f776e6560008201527f72206e6f7220617070726f766564000000000000000000000000000000000000602082015250565b60006121a3602e83611ae3565b91506121ae82612147565b604082019050919050565b600060208201905081810360008301526121d281612196565b9050919050565b7f4552433732313a20696e76616c696420746f6b656e2049440000000000000000600082015250565b600061220f601883611ae3565b915061221a826121d9565b602082019050919050565b6000602082019050818103600083015261223e81612202565b9050919050565b7f4552433732313a2061646472657373207a65726f206973206e6f74206120766160008201527f6c6964206f776e65720000000000000000000000000000000000000000000000602082015250565b60006122a1602983611ae3565b91506122ac82612245565b604082019050919050565b600060208201905081810360008301526122d081612294565b9050919050565b600081905092915050565b60006122ed82611ad8565b6122f781856122d7565b9350612307818560208601611af4565b80840191505092915050565b600061231f82856122e2565b915061232b82846122e2565b91508190509392505050565b7f4f776e61626c653a206e6577206f776e657220697320746865207a65726f206160008201527f6464726573730000000000000000000000000000000000000000000000000000602082015250565b6000612393602683611ae3565b915061239e82612337565b604082019050919050565b600060208201905081810360008301526123c281612386565b9050919050565b7f4552433732313a207472616e736665722066726f6d20696e636f72726563742060008201527f6f776e6572000000000000000000000000000000000000000000000000000000602082015250565b6000612425602583611ae3565b9150612430826123c9565b604082019050919050565b6000602082019050818103600083015261245481612418565b9050919050565b7f4552433732313a207472616e7366657220746f20746865207a65726f2061646460008201527f7265737300000000000000000000000000000000000000000000000000000000602082015250565b60006124b7602483611ae3565b91506124c28261245b565b604082019050919050565b600060208201905081810360008301526124e6816124aa565b9050919050565b7f4e487b7100000000000000000000000000000000000000000000000000000000600052601160045260246000fd5b600061252782611b8a565b915061253283611b8a565b925082820390508181111561254a576125496124ed565b5b92915050565b600061255b82611b8a565b915061256683611b8a565b925082820190508082111561257e5761257d6124ed565b5b92915050565b7f4f776e61626c653a2063616c6c6572206973206e6f7420746865206f776e6572600082015250565b60006125ba602083611ae3565b91506125c582612584565b602082019050919050565b600060208201905081810360008301526125e9816125ad565b9050919050565b7f45524337323155524953746f726167653a2055524920736574206f66206e6f6e60008201527f6578697374656e7420746f6b656e000000000000000000000000000000000000602082015250565b600061264c602e83611ae3565b9150612657826125f0565b604082019050919050565b6000602082019050818103600083015261267b8161263f565b9050919050565b60008190508160005260206000209050919050565b60006020601f8301049050919050565b600082821b905092915050565b6000600883026126e47fffffffffffffffffffffffffffffffffffffffffffffffffffffffffffffffff826126a7565b6126ee86836126a7565b95508019841693508086168417925050509392505050565b6000819050919050565b600061272b61272661272184611b8a565b612706565b611b8a565b9050919050565b6000819050919050565b61274583612710565b61275961275182612732565b8484546126b4565b825550505050565b600090565b61276e612761565b61277981848461273c565b505050565b5b8181101561279d57612792600082612766565b60018101905061277f565b5050565b601f8211156127e2576127b381612682565b6127bc84612697565b810160208510156127cb578190505b6127df6127d785612697565b83018261277e565b50505b505050565b600082821c905092915050565b6000612805600019846008026127e7565b1980831691505092915050565b600061281e83836127f4565b9150826002028217905092915050565b61283782611ad8565b67ffffffffffffffff8111156128505761284f611dd5565b5b61285a8254611ff2565b6128658282856127a1565b600060209050601f8311600181146128985760008415612886578287015190505b6128908582612812565b8655506128f8565b601f1984166128a686612682565b60005b828110156128ce578489015182556001820191506020850194506020810190506128a9565b868310156128eb57848901516128e7601f8916826127f4565b8355505b6001600288020188555050505b505050505050565b7f4552433732313a20617070726f766520746f2063616c6c657200000000000000600082015250565b6000612936601983611ae3565b915061294182612900565b602082019050919050565b6000602082019050818103600083015261296581612929565b9050919050565b7f4552433732313a207472616e7366657220746f206e6f6e20455243373231526560008201527f63656976657220696d706c656d656e7465720000000000000000000000000000602082015250565b60006129c8603283611ae3565b91506129d38261296c565b604082019050919050565b600060208201905081810360008301526129f7816129bb565b9050919050565b600081519050919050565b600082825260208201905092915050565b6000612a25826129fe565b612a2f8185612a09565b9350612a3f818560208601611af4565b612a4881611b1e565b840191505092915050565b6000608082019050612a686000830187611c1f565b612a756020830186611c1f565b612a826040830185611d35565b8181036060830152612a948184612a1a565b905095945050505050565b600081519050612aae81611a49565b92915050565b600060208284031215612aca57612ac9611a13565b5b6000612ad884828501612a9f565b91505092915050565b6000612aec82611b8a565b91507fffffffffffffffffffffffffffffffffffffffffffffffffffffffffffffffff8203612b1e57612b1d6124ed565b5b600182019050919050565b7f4e487b7100000000000000000000000000000000000000000000000000000000600052601260045260246000fd5b6000612b6382611b8a565b9150612b6e83611b8a565b925082612b7e57612b7d612b29565b5b828204905092915050565b6000612b9482611b8a565b9150612b9f83611b8a565b925082612baf57612bae612b29565b5b828206905092915050565b7f4e487b7100000000000000000000000000000000000000000000000000000000600052603260045260246000fd5b7f4552433732313a206d696e7420746f20746865207a65726f2061646472657373600082015250565b6000612c1f602083611ae3565b9150612c2a82612be9565b602082019050919050565b60006020820190508181036000830152612c4e81612c12565b9050919050565b7f4552433732313a20746f6b656e20616c7265616479206d696e74656400000000600082015250565b6000612c8b601c83611ae3565b9150612c9682612c55565b602082019050919050565b60006020820190508181036000830152612cba81612c7e565b905091905056fe646174613a6170706c69636174696f6e2f6a736f6e3b6261736536342c65776f6749434167496d3568625755694f6941695432354461474670626b3576595767694c416f6749434167496d526c63324e796158423061573975496a6f67496b45675a6e4a6c63326767626a4268614342306232746c6269776762576c756447566b49473975494564765a584a736153346751334a6c5958526c5a4342545a5842304c6941794d4449794969774b4943416749434a706257466e5a53493649434a6b595852684f6d6c745957646c4c334e325a797434625777375545684f4d6c7035516a52695633683159336f7761574649556a426a5247393254444e6b4d3252354e544e4e655456325932316a646b31715158644e517a6c365a47316a61556c49516e6c61574535735932356162464659546e646156303477565731474d4746584f446c4a626d684f59566331576c52586248564a527a4673576c685261556c49576e426157475244596a4e6e4f556c715157644e51304636546c52425a3031365658644a616a524c53554e425a306c456548706b5347787a576c513064566c74526e7061553049335355646163474a48647a5a4a534752765956685362453935516d31694d6a55775446646161474a5862484e6c5647396e597a4a57655746585754644a52317032596d355264474d7962445a615647396e54565253643256456332646d56486432597a4e534e574a48565374446155466e53554e424f474e74566d706b5130497a595664534d4746454d476c4e56454633536c4e4a5a324648566e42614d6d677755464e4a654531455157784a61554a745956643463314254536d6c6952305a7159586c4a5a3078364e45744a5130466e535552344d4670596144424a5347633553577056643070545357646c56444270546c524262456c70516d706952305a3659336f7761566c74526e706155306c6e576b6335644746584e576869626c463057573147656c705865484269625655355357307863467048556e4e6155306c6e5a4564574e4752444d57686962553576596a4e4a4f556c744d58426152314a7a576c4e4a4b315a486148426a65554a7759336c4361456c484e48645a5632646e5a456335636c70584e484e4a52305a315355553152315a44516a4e6857464a765355637862475248526d745a57464a6f5355684f4d47497a536d786151304a32596d6b78616d4648526e42696154526e55454d354d467059614442515a32383454444e4f4d6c70364e443069436e303da264697066735822122002e8cba6dd1e3c292b417dba4ac4b9b70ce43de4f3b4815efb657067a4d88a2b64736f6c63430008110033",
  "linkReferences": {},
  "deployedLinkReferences": {}
}